{
  "_format": "hh-sol-artifact-1",
  "contractName": "DvlpMarketplace",
  "sourceName": "contracts/DvlpMarketplace.sol",
  "abi": [
    {
      "anonymous": false,
      "inputs": [
        {
          "indexed": true,
          "internalType": "uint256",
          "name": "listingId",
          "type": "uint256"
        },
        {
          "indexed": true,
          "internalType": "address",
          "name": "tokenContract",
          "type": "address"
        },
        {
          "indexed": true,
          "internalType": "uint256",
          "name": "tokenId",
          "type": "uint256"
        },
        {
          "indexed": false,
          "internalType": "uint256",
          "name": "tokenAmmount",
          "type": "uint256"
        },
        {
          "indexed": false,
          "internalType": "uint256",
          "name": "price",
          "type": "uint256"
        },
        {
          "indexed": false,
          "internalType": "address payable",
          "name": "seller",
          "type": "address"
        },
        {
          "indexed": false,
          "internalType": "bool",
          "name": "soldFl",
          "type": "bool"
        },
        {
          "indexed": false,
          "internalType": "bool",
          "name": "saleFl",
          "type": "bool"
        }
      ],
      "name": "NFTListingAdded",
      "type": "event"
    },
    {
      "anonymous": false,
      "inputs": [
        {
          "indexed": true,
          "internalType": "address",
          "name": "previousOwner",
          "type": "address"
        },
        {
          "indexed": true,
          "internalType": "address",
          "name": "newOwner",
          "type": "address"
        }
      ],
      "name": "OwnershipTransferred",
      "type": "event"
    },
    {
      "inputs": [
        {
          "internalType": "address",
          "name": "",
          "type": "address"
        },
        {
          "internalType": "uint256",
          "name": "",
          "type": "uint256"
        }
      ],
      "name": "NFTlistings",
      "outputs": [
        {
          "internalType": "uint256",
          "name": "listingId",
          "type": "uint256"
        },
        {
          "internalType": "uint256",
          "name": "tokenId",
          "type": "uint256"
        },
        {
          "internalType": "uint256",
          "name": "tokenAmmount",
          "type": "uint256"
        },
        {
          "internalType": "uint256",
          "name": "price",
          "type": "uint256"
        },
        {
          "internalType": "address payable",
          "name": "seller",
          "type": "address"
        },
        {
          "internalType": "bool",
          "name": "soldFl",
          "type": "bool"
        },
        {
          "internalType": "bool",
          "name": "saleFl",
          "type": "bool"
        }
      ],
      "stateMutability": "view",
      "type": "function"
    },
    {
      "inputs": [
        {
          "internalType": "uint256",
          "name": "priceNFT",
          "type": "uint256"
        },
        {
          "internalType": "address",
          "name": "contractNFT",
          "type": "address"
        },
        {
          "internalType": "uint256",
          "name": "tokenId",
          "type": "uint256"
        },
        {
          "internalType": "uint256",
          "name": "tokenAmmount",
          "type": "uint256"
        }
      ],
      "name": "addNFTListing",
      "outputs": [],
      "stateMutability": "nonpayable",
      "type": "function"
    },
    {
      "inputs": [
        {
          "internalType": "uint256[]",
          "name": "_priceNFTs",
          "type": "uint256[]"
        },
        {
          "internalType": "address",
          "name": "contractNFT",
          "type": "address"
        },
        {
          "internalType": "uint256[]",
          "name": "_tokenIds",
          "type": "uint256[]"
        },
        {
          "internalType": "uint256[]",
          "name": "_tokenAmmounts",
          "type": "uint256[]"
        }
      ],
      "name": "addNFTListingBatch",
      "outputs": [],
      "stateMutability": "nonpayable",
      "type": "function"
    },
    {
      "inputs": [
        {
          "internalType": "address",
          "name": "",
          "type": "address"
        }
      ],
      "name": "balanceSold",
      "outputs": [
        {
          "internalType": "uint256",
          "name": "",
          "type": "uint256"
        }
      ],
      "stateMutability": "view",
      "type": "function"
    },
    {
      "inputs": [
        {
          "internalType": "address",
          "name": "contractNFT",
          "type": "address"
        },
        {
          "internalType": "uint256",
          "name": "itemId",
          "type": "uint256"
        },
        {
          "internalType": "uint256",
          "name": "tokenAmmount",
          "type": "uint256"
        }
      ],
      "name": "buyNFT",
      "outputs": [],
      "stateMutability": "payable",
      "type": "function"
    },
    {
      "inputs": [
        {
          "internalType": "address",
          "name": "contractNFT",
          "type": "address"
        },
        {
          "internalType": "uint256",
          "name": "itemId",
          "type": "uint256"
        }
      ],
      "name": "cancelNFTListing",
      "outputs": [],
      "stateMutability": "nonpayable",
      "type": "function"
    },
    {
      "inputs": [
        {
          "internalType": "address",
          "name": "contractNFT",
          "type": "address"
        },
        {
          "internalType": "uint256",
          "name": "itemId",
          "type": "uint256"
        },
        {
          "internalType": "uint256",
          "name": "priceNFT",
          "type": "uint256"
        }
      ],
      "name": "changeNFTPrice",
      "outputs": [],
      "stateMutability": "nonpayable",
      "type": "function"
    },
    {
      "inputs": [
        {
          "internalType": "address",
          "name": "contractNFT",
          "type": "address"
        }
      ],
      "name": "fetchNFTListings",
      "outputs": [
        {
          "components": [
            {
              "internalType": "uint256",
              "name": "listingId",
              "type": "uint256"
            },
            {
              "internalType": "uint256",
              "name": "tokenId",
              "type": "uint256"
            },
            {
              "internalType": "uint256",
              "name": "tokenAmmount",
              "type": "uint256"
            },
            {
              "internalType": "uint256",
              "name": "price",
              "type": "uint256"
            },
            {
              "internalType": "address payable",
              "name": "seller",
              "type": "address"
            },
            {
              "internalType": "bool",
              "name": "soldFl",
              "type": "bool"
            },
            {
              "internalType": "bool",
              "name": "saleFl",
              "type": "bool"
            }
          ],
          "internalType": "struct DvlpMarketplace.NFTListing[]",
          "name": "",
          "type": "tuple[]"
        }
      ],
      "stateMutability": "view",
      "type": "function"
    },
    {
      "inputs": [],
      "name": "owner",
      "outputs": [
        {
          "internalType": "address",
          "name": "",
          "type": "address"
        }
      ],
      "stateMutability": "view",
      "type": "function"
    },
    {
      "inputs": [],
      "name": "renounceOwnership",
      "outputs": [],
      "stateMutability": "nonpayable",
      "type": "function"
    },
    {
      "inputs": [
        {
          "internalType": "address",
          "name": "newOwner",
          "type": "address"
        }
      ],
      "name": "transferOwnership",
      "outputs": [],
      "stateMutability": "nonpayable",
      "type": "function"
    },
    {
      "inputs": [
        {
          "internalType": "uint256",
          "name": "tokenAmmount",
          "type": "uint256"
        },
        {
          "internalType": "address payable",
          "name": "receiverAddress",
          "type": "address"
        }
      ],
      "name": "withdrawToken",
      "outputs": [],
      "stateMutability": "nonpayable",
      "type": "function"
    }
  ],
  "bytecode": "0x60806040523480156200001157600080fd5b5060016000819055506200003a6200002e6200004060201b60201c565b6200004860201b60201c565b6200010e565b600033905090565b6000600160009054906101000a900473ffffffffffffffffffffffffffffffffffffffff16905081600160006101000a81548173ffffffffffffffffffffffffffffffffffffffff021916908373ffffffffffffffffffffffffffffffffffffffff1602179055508173ffffffffffffffffffffffffffffffffffffffff168173ffffffffffffffffffffffffffffffffffffffff167f8be0079c531659141344cd1fd0a4f28419497f9722a3daafe3b4186f6b6457e060405160405180910390a35050565b6128d3806200011e6000396000f3fe6080604052600436106100a75760003560e01c80638da5cb5b116100645780638da5cb5b146101ab5780639ed64f6c146101d6578063be4b1772146101ff578063d1d5793b14610228578063df712eb01461026b578063f2fde38b14610294576100a7565b806341b02912146100ac578063492da5a4146100d55780634a757b89146101125780634c3385991461014f57806353da6f0114610178578063715018a614610194575b600080fd5b3480156100b857600080fd5b506100d360048036038101906100ce9190611a15565b6102bd565b005b3480156100e157600080fd5b506100fc60048036038101906100f79190611a55565b610455565b6040516101099190611a91565b60405180910390f35b34801561011e57600080fd5b5061013960048036038101906101349190611a55565b61046d565b6040516101469190611c34565b60405180910390f35b34801561015b57600080fd5b5061017660048036038101906101719190611daf565b6106bb565b005b610192600480360381019061018d9190611e6a565b610b72565b005b3480156101a057600080fd5b506101a9610e9d565b005b3480156101b757600080fd5b506101c0610f25565b6040516101cd9190611ecc565b60405180910390f35b3480156101e257600080fd5b506101fd60048036038101906101f89190611ee7565b610f4f565b005b34801561020b57600080fd5b5061022660048036038101906102219190611f7a565b6112ec565b005b34801561023457600080fd5b5061024f600480360381019061024a9190611a15565b611464565b6040516102629796959493929190611fd8565b60405180910390f35b34801561027757600080fd5b50610292600480360381019061028d9190611e6a565b6114ed565b005b3480156102a057600080fd5b506102bb60048036038101906102b69190611a55565b61172d565b005b600260005403610302576040517f08c379a00000000000000000000000000000000000000000000000000000000081526004016102f9906120a4565b60405180910390fd5b600260008190555060008290506000600360008573ffffffffffffffffffffffffffffffffffffffff1673ffffffffffffffffffffffffffffffffffffffff1681526020019081526020016000206000848152602001908152602001600020905060008160010154905060008373ffffffffffffffffffffffffffffffffffffffff1662fdd58e33846040518363ffffffff1660e01b81526004016103a89291906120c4565b602060405180830381865afa1580156103c5573d6000803e3d6000fd5b505050506040513d601f19601f820116820180604052508101906103e99190612102565b11610429576040517f08c379a0000000000000000000000000000000000000000000000000000000008152600401610420906121a1565b60405180910390fd5b60008260040160156101000a81548160ff02191690831515021790555050505060016000819055505050565b60046020528060005260406000206000915090505481565b6060600061047b6002611824565b90506000808267ffffffffffffffff81111561049a57610499611c6c565b5b6040519080825280602002602001820160405280156104d357816020015b6104c0611916565b8152602001906001900390816104b85790505b50905060005b6001846104e691906121f0565b8110156106af5760011515600360008873ffffffffffffffffffffffffffffffffffffffff1673ffffffffffffffffffffffffffffffffffffffff168152602001908152602001600020600083815260200190815260200160002060040160159054906101000a900460ff1615150361069c576000600360008873ffffffffffffffffffffffffffffffffffffffff1673ffffffffffffffffffffffffffffffffffffffff16815260200190815260200160002060008381526020019081526020016000209050806040518060e0016040529081600082015481526020016001820154815260200160028201548152602001600382015481526020016004820160009054906101000a900473ffffffffffffffffffffffffffffffffffffffff1673ffffffffffffffffffffffffffffffffffffffff1673ffffffffffffffffffffffffffffffffffffffff1681526020016004820160149054906101000a900460ff161515151581526020016004820160159054906101000a900460ff1615151515815250508385815181106106805761067f612246565b5b602002602001018190525060018461069891906121f0565b9350505b80806106a790612275565b9150506104d9565b50809350505050919050565b600260005403610700576040517f08c379a00000000000000000000000000000000000000000000000000000000081526004016106f7906120a4565b60405180910390fd5b600260008190555060008390508073ffffffffffffffffffffffffffffffffffffffff1663e985e9c533306040518363ffffffff1660e01b81526004016107489291906122bd565b602060405180830381865afa158015610765573d6000803e3d6000fd5b505050506040513d601f19601f820116820180604052508101906107899190612312565b6107c8576040517f08c379a00000000000000000000000000000000000000000000000000000000081526004016107bf9061238b565b60405180910390fd5b601583511061080c576040517f08c379a00000000000000000000000000000000000000000000000000000000081526004016108039061241d565b60405180910390fd5b60005b8351811015610b625760008273ffffffffffffffffffffffffffffffffffffffff1662fdd58e3387858151811061084957610848612246565b5b60200260200101516040518363ffffffff1660e01b815260040161086e9291906120c4565b602060405180830381865afa15801561088b573d6000803e3d6000fd5b505050506040513d601f19601f820116820180604052508101906108af9190612102565b116108ef576040517f08c379a00000000000000000000000000000000000000000000000000000000081526004016108e6906121a1565b60405180910390fd5b6108f96002611832565b60006109056002611824565b90506040518060e0016040528082815260200186848151811061092b5761092a612246565b5b6020026020010151815260200185848151811061094b5761094a612246565b5b6020026020010151815260200188848151811061096b5761096a612246565b5b602002602001015181526020013373ffffffffffffffffffffffffffffffffffffffff16815260200160001515815260200160011515815250600360008873ffffffffffffffffffffffffffffffffffffffff1673ffffffffffffffffffffffffffffffffffffffff16815260200190815260200160002060008381526020019081526020016000206000820151816000015560208201518160010155604082015181600201556060820151816003015560808201518160040160006101000a81548173ffffffffffffffffffffffffffffffffffffffff021916908373ffffffffffffffffffffffffffffffffffffffff16021790555060a08201518160040160146101000a81548160ff02191690831515021790555060c08201518160040160156101000a81548160ff021916908315150217905550905050848281518110610ab957610ab8612246565b5b60200260200101518673ffffffffffffffffffffffffffffffffffffffff16827f4eddc2fe2ae8ff4612cb785efac4e7e6c3954fcdbc3e2519eb6c56e379af1a58878681518110610b0d57610b0c612246565b5b60200260200101518b8781518110610b2857610b27612246565b5b60200260200101513360006001604051610b4695949392919061243d565b60405180910390a4508080610b5a90612275565b91505061080f565b5050600160008190555050505050565b600260005403610bb7576040517f08c379a0000000000000000000000000000000000000000000000000000000008152600401610bae906120a4565b60405180910390fd5b600260008190555060008390506000600360008673ffffffffffffffffffffffffffffffffffffffff1673ffffffffffffffffffffffffffffffffffffffff1681526020019081526020016000206000858152602001908152602001600020905060008160010154905060008373ffffffffffffffffffffffffffffffffffffffff1662fdd58e8460040160009054906101000a900473ffffffffffffffffffffffffffffffffffffffff16846040518363ffffffff1660e01b8152600401610c819291906124ef565b602060405180830381865afa158015610c9e573d6000803e3d6000fd5b505050506040513d601f19601f82011682018060405250810190610cc29190612102565b11610d02576040517f08c379a0000000000000000000000000000000000000000000000000000000008152600401610cf99061258a565b60405180910390fd5b838260030154610d1291906125aa565b3414610d53576040517f08c379a0000000000000000000000000000000000000000000000000000000008152600401610d4a90612650565b60405180910390fd5b8160040160009054906101000a900473ffffffffffffffffffffffffffffffffffffffff1673ffffffffffffffffffffffffffffffffffffffff166108fc349081150290604051600060405180830381858888f19350505050158015610dbd573d6000803e3d6000fd5b508273ffffffffffffffffffffffffffffffffffffffff1663f242432a8360040160009054906101000a900473ffffffffffffffffffffffffffffffffffffffff163384886040518563ffffffff1660e01b8152600401610e2194939291906126a7565b600060405180830381600087803b158015610e3b57600080fd5b505af1158015610e4f573d6000803e3d6000fd5b5050505060018260040160146101000a81548160ff02191690831515021790555060008260040160156101000a81548160ff0219169083151502179055505050506001600081905550505050565b610ea5611848565b73ffffffffffffffffffffffffffffffffffffffff16610ec3610f25565b73ffffffffffffffffffffffffffffffffffffffff1614610f19576040517f08c379a0000000000000000000000000000000000000000000000000000000008152600401610f109061274b565b60405180910390fd5b610f236000611850565b565b6000600160009054906101000a900473ffffffffffffffffffffffffffffffffffffffff16905090565b600260005403610f94576040517f08c379a0000000000000000000000000000000000000000000000000000000008152600401610f8b906120a4565b60405180910390fd5b6002600081905550600083905060008173ffffffffffffffffffffffffffffffffffffffff1662fdd58e33866040518363ffffffff1660e01b8152600401610fdd9291906120c4565b602060405180830381865afa158015610ffa573d6000803e3d6000fd5b505050506040513d601f19601f8201168201806040525081019061101e9190612102565b1161105e576040517f08c379a0000000000000000000000000000000000000000000000000000000008152600401611055906121a1565b60405180910390fd5b8073ffffffffffffffffffffffffffffffffffffffff1663e985e9c533306040518363ffffffff1660e01b81526004016110999291906122bd565b602060405180830381865afa1580156110b6573d6000803e3d6000fd5b505050506040513d601f19601f820116820180604052508101906110da9190612312565b611119576040517f08c379a00000000000000000000000000000000000000000000000000000000081526004016111109061238b565b60405180910390fd5b6111236002611832565b600061112f6002611824565b90506040518060e001604052808281526020018581526020018481526020018781526020013373ffffffffffffffffffffffffffffffffffffffff16815260200160001515815260200160011515815250600360008773ffffffffffffffffffffffffffffffffffffffff1673ffffffffffffffffffffffffffffffffffffffff16815260200190815260200160002060008381526020019081526020016000206000820151816000015560208201518160010155604082015181600201556060820151816003015560808201518160040160006101000a81548173ffffffffffffffffffffffffffffffffffffffff021916908373ffffffffffffffffffffffffffffffffffffffff16021790555060a08201518160040160146101000a81548160ff02191690831515021790555060c08201518160040160156101000a81548160ff021916908315150217905550905050838573ffffffffffffffffffffffffffffffffffffffff16827f4eddc2fe2ae8ff4612cb785efac4e7e6c3954fcdbc3e2519eb6c56e379af1a58868a33600060016040516112d495949392919061243d565b60405180910390a45050600160008190555050505050565b600260005403611331576040517f08c379a0000000000000000000000000000000000000000000000000000000008152600401611328906120a4565b60405180910390fd5b6002600081905550600460003373ffffffffffffffffffffffffffffffffffffffff1673ffffffffffffffffffffffffffffffffffffffff168152602001908152602001600020548211156113bb576040517f08c379a00000000000000000000000000000000000000000000000000000000081526004016113b2906127b7565b60405180910390fd5b81600460003373ffffffffffffffffffffffffffffffffffffffff1673ffffffffffffffffffffffffffffffffffffffff168152602001908152602001600020600082825461140a91906127d7565b925050819055508073ffffffffffffffffffffffffffffffffffffffff166108fc839081150290604051600060405180830381858888f19350505050158015611457573d6000803e3d6000fd5b5060016000819055505050565b6003602052816000526040600020602052806000526040600020600091509150508060000154908060010154908060020154908060030154908060040160009054906101000a900473ffffffffffffffffffffffffffffffffffffffff16908060040160149054906101000a900460ff16908060040160159054906101000a900460ff16905087565b600260005403611532576040517f08c379a0000000000000000000000000000000000000000000000000000000008152600401611529906120a4565b60405180910390fd5b600260008190555060008390506000600360008673ffffffffffffffffffffffffffffffffffffffff1673ffffffffffffffffffffffffffffffffffffffff1681526020019081526020016000206000858152602001908152602001600020905060008160010154905060008373ffffffffffffffffffffffffffffffffffffffff1662fdd58e33846040518363ffffffff1660e01b81526004016115d89291906120c4565b602060405180830381865afa1580156115f5573d6000803e3d6000fd5b505050506040513d601f19601f820116820180604052508101906116199190612102565b11611659576040517f08c379a0000000000000000000000000000000000000000000000000000000008152600401611650906121a1565b60405180910390fd5b8273ffffffffffffffffffffffffffffffffffffffff1663e985e9c533306040518363ffffffff1660e01b81526004016116949291906122bd565b602060405180830381865afa1580156116b1573d6000803e3d6000fd5b505050506040513d601f19601f820116820180604052508101906116d59190612312565b611714576040517f08c379a000000000000000000000000000000000000000000000000000000000815260040161170b9061238b565b60405180910390fd5b8382600301819055505050506001600081905550505050565b611735611848565b73ffffffffffffffffffffffffffffffffffffffff16611753610f25565b73ffffffffffffffffffffffffffffffffffffffff16146117a9576040517f08c379a00000000000000000000000000000000000000000000000000000000081526004016117a09061274b565b60405180910390fd5b600073ffffffffffffffffffffffffffffffffffffffff168173ffffffffffffffffffffffffffffffffffffffff1603611818576040517f08c379a000000000000000000000000000000000000000000000000000000000815260040161180f9061287d565b60405180910390fd5b61182181611850565b50565b600081600001549050919050565b6001816000016000828254019250508190555050565b600033905090565b6000600160009054906101000a900473ffffffffffffffffffffffffffffffffffffffff16905081600160006101000a81548173ffffffffffffffffffffffffffffffffffffffff021916908373ffffffffffffffffffffffffffffffffffffffff1602179055508173ffffffffffffffffffffffffffffffffffffffff168173ffffffffffffffffffffffffffffffffffffffff167f8be0079c531659141344cd1fd0a4f28419497f9722a3daafe3b4186f6b6457e060405160405180910390a35050565b6040518060e0016040528060008152602001600081526020016000815260200160008152602001600073ffffffffffffffffffffffffffffffffffffffff1681526020016000151581526020016000151581525090565b6000604051905090565b600080fd5b600080fd5b600073ffffffffffffffffffffffffffffffffffffffff82169050919050565b60006119ac82611981565b9050919050565b6119bc816119a1565b81146119c757600080fd5b50565b6000813590506119d9816119b3565b92915050565b6000819050919050565b6119f2816119df565b81146119fd57600080fd5b50565b600081359050611a0f816119e9565b92915050565b60008060408385031215611a2c57611a2b611977565b5b6000611a3a858286016119ca565b9250506020611a4b85828601611a00565b9150509250929050565b600060208284031215611a6b57611a6a611977565b5b6000611a79848285016119ca565b91505092915050565b611a8b816119df565b82525050565b6000602082019050611aa66000830184611a82565b92915050565b600081519050919050565b600082825260208201905092915050565b6000819050602082019050919050565b611ae1816119df565b82525050565b6000611af282611981565b9050919050565b611b0281611ae7565b82525050565b60008115159050919050565b611b1d81611b08565b82525050565b60e082016000820151611b396000850182611ad8565b506020820151611b4c6020850182611ad8565b506040820151611b5f6040850182611ad8565b506060820151611b726060850182611ad8565b506080820151611b856080850182611af9565b5060a0820151611b9860a0850182611b14565b5060c0820151611bab60c0850182611b14565b50505050565b6000611bbd8383611b23565b60e08301905092915050565b6000602082019050919050565b6000611be182611aac565b611beb8185611ab7565b9350611bf683611ac8565b8060005b83811015611c27578151611c0e8882611bb1565b9750611c1983611bc9565b925050600181019050611bfa565b5085935050505092915050565b60006020820190508181036000830152611c4e8184611bd6565b905092915050565b600080fd5b6000601f19601f8301169050919050565b7f4e487b7100000000000000000000000000000000000000000000000000000000600052604160045260246000fd5b611ca482611c5b565b810181811067ffffffffffffffff82111715611cc357611cc2611c6c565b5b80604052505050565b6000611cd661196d565b9050611ce28282611c9b565b919050565b600067ffffffffffffffff821115611d0257611d01611c6c565b5b602082029050602081019050919050565b600080fd5b6000611d2b611d2684611ce7565b611ccc565b90508083825260208201905060208402830185811115611d4e57611d4d611d13565b5b835b81811015611d775780611d638882611a00565b845260208401935050602081019050611d50565b5050509392505050565b600082601f830112611d9657611d95611c56565b5b8135611da6848260208601611d18565b91505092915050565b60008060008060808587031215611dc957611dc8611977565b5b600085013567ffffffffffffffff811115611de757611de661197c565b5b611df387828801611d81565b9450506020611e04878288016119ca565b935050604085013567ffffffffffffffff811115611e2557611e2461197c565b5b611e3187828801611d81565b925050606085013567ffffffffffffffff811115611e5257611e5161197c565b5b611e5e87828801611d81565b91505092959194509250565b600080600060608486031215611e8357611e82611977565b5b6000611e91868287016119ca565b9350506020611ea286828701611a00565b9250506040611eb386828701611a00565b9150509250925092565b611ec6816119a1565b82525050565b6000602082019050611ee16000830184611ebd565b92915050565b60008060008060808587031215611f0157611f00611977565b5b6000611f0f87828801611a00565b9450506020611f20878288016119ca565b9350506040611f3187828801611a00565b9250506060611f4287828801611a00565b91505092959194509250565b611f5781611ae7565b8114611f6257600080fd5b50565b600081359050611f7481611f4e565b92915050565b60008060408385031215611f9157611f90611977565b5b6000611f9f85828601611a00565b9250506020611fb085828601611f65565b9150509250929050565b611fc381611ae7565b82525050565b611fd281611b08565b82525050565b600060e082019050611fed600083018a611a82565b611ffa6020830189611a82565b6120076040830188611a82565b6120146060830187611a82565b6120216080830186611fba565b61202e60a0830185611fc9565b61203b60c0830184611fc9565b98975050505050505050565b600082825260208201905092915050565b7f5265656e7472616e637947756172643a207265656e7472616e742063616c6c00600082015250565b600061208e601f83612047565b915061209982612058565b602082019050919050565b600060208201905081810360008301526120bd81612081565b9050919050565b60006040820190506120d96000830185611ebd565b6120e66020830184611a82565b9392505050565b6000815190506120fc816119e9565b92915050565b60006020828403121561211857612117611977565b5b6000612126848285016120ed565b91505092915050565b7f466f72206c697374696e672063616c6c6572206d757374206f776e207468652060008201527f746f6b656e000000000000000000000000000000000000000000000000000000602082015250565b600061218b602583612047565b91506121968261212f565b604082019050919050565b600060208201905081810360008301526121ba8161217e565b9050919050565b7f4e487b7100000000000000000000000000000000000000000000000000000000600052601160045260246000fd5b60006121fb826119df565b9150612206836119df565b9250827fffffffffffffffffffffffffffffffffffffffffffffffffffffffffffffffff0382111561223b5761223a6121c1565b5b828201905092915050565b7f4e487b7100000000000000000000000000000000000000000000000000000000600052603260045260246000fd5b6000612280826119df565b91507fffffffffffffffffffffffffffffffffffffffffffffffffffffffffffffffff82036122b2576122b16121c1565b5b600182019050919050565b60006040820190506122d26000830185611ebd565b6122df6020830184611ebd565b9392505050565b6122ef81611b08565b81146122fa57600080fd5b50565b60008151905061230c816122e6565b92915050565b60006020828403121561232857612327611977565b5b6000612336848285016122fd565b91505092915050565b7f436f6e7472616374206d75737420626520617070726f76656400000000000000600082015250565b6000612375601983612047565b91506123808261233f565b602082019050919050565b600060208201905081810360008301526123a481612368565b9050919050565b7f4d6178696d756d20323020746f6b656e7320746f206c69737420696e2062617460008201527f6368000000000000000000000000000000000000000000000000000000000000602082015250565b6000612407602283612047565b9150612412826123ab565b604082019050919050565b60006020820190508181036000830152612436816123fa565b9050919050565b600060a0820190506124526000830188611a82565b61245f6020830187611a82565b61246c6040830186611fba565b6124796060830185611fc9565b6124866080830184611fc9565b9695505050505050565b6000819050919050565b60006124b56124b06124ab84611981565b612490565b611981565b9050919050565b60006124c78261249a565b9050919050565b60006124d9826124bc565b9050919050565b6124e9816124ce565b82525050565b600060408201905061250460008301856124e0565b6125116020830184611a82565b9392505050565b7f63616e206e6f742073656c6c20736f6d657468696e67207468617420646f657360008201527f206e6f7420657869737473000000000000000000000000000000000000000000602082015250565b6000612574602b83612047565b915061257f82612518565b604082019050919050565b600060208201905081810360008301526125a381612567565b9050919050565b60006125b5826119df565b91506125c0836119df565b9250817fffffffffffffffffffffffffffffffffffffffffffffffffffffffffffffffff04831182151516156125f9576125f86121c1565b5b828202905092915050565b7f706c656173652073656e642072657175697265642066756e6473000000000000600082015250565b600061263a601a83612047565b915061264582612604565b602082019050919050565b600060208201905081810360008301526126698161262d565b9050919050565b600082825260208201905092915050565b50565b6000612691600083612670565b915061269c82612681565b600082019050919050565b600060a0820190506126bc60008301876124e0565b6126c96020830186611ebd565b6126d66040830185611a82565b6126e36060830184611a82565b81810360808301526126f481612684565b905095945050505050565b7f4f776e61626c653a2063616c6c6572206973206e6f7420746865206f776e6572600082015250565b6000612735602083612047565b9150612740826126ff565b602082019050919050565b6000602082019050818103600083015261276481612728565b9050919050565b7f696e73756666696369656e7420616d6d6f756e7420746f207769746864726177600082015250565b60006127a1602083612047565b91506127ac8261276b565b602082019050919050565b600060208201905081810360008301526127d081612794565b9050919050565b60006127e2826119df565b91506127ed836119df565b925082821015612800576127ff6121c1565b5b828203905092915050565b7f4f776e61626c653a206e6577206f776e657220697320746865207a65726f206160008201527f6464726573730000000000000000000000000000000000000000000000000000602082015250565b6000612867602683612047565b91506128728261280b565b604082019050919050565b600060208201905081810360008301526128968161285a565b905091905056fea2646970667358221220b158d675382f17d4f5a6ed1dc2bb07fb73b2f8afe809a1128280dfcb010a2c5c64736f6c634300080f0033",
  "linkReferences": {},
  "deployedLinkReferences": {}
}