{
  "_format": "hh-sol-artifact-1",
  "contractName": "DvlpCollection",
  "sourceName": "contracts/DvlpCollection.sol",
  "abi": [
    {
      "inputs": [
        {
          "internalType": "string",
          "name": "name_",
          "type": "string"
        },
        {
          "internalType": "string",
          "name": "symbol_",
          "type": "string"
        },
        {
          "internalType": "string",
          "name": "_tokenURIPrefix",
          "type": "string"
        },
        {
          "internalType": "uint256",
          "name": "royaltyPercent_",
          "type": "uint256"
        }
      ],
      "stateMutability": "nonpayable",
      "type": "constructor"
    },
    {
      "anonymous": false,
      "inputs": [
        {
          "indexed": true,
          "internalType": "address",
          "name": "account",
          "type": "address"
        },
        {
          "indexed": true,
          "internalType": "address",
          "name": "operator",
          "type": "address"
        },
        {
          "indexed": false,
          "internalType": "bool",
          "name": "approved",
          "type": "bool"
        }
      ],
      "name": "ApprovalForAll",
      "type": "event"
    },
    {
      "anonymous": false,
      "inputs": [
        {
          "indexed": true,
          "internalType": "address",
          "name": "previousOwner",
          "type": "address"
        },
        {
          "indexed": true,
          "internalType": "address",
          "name": "newOwner",
          "type": "address"
        }
      ],
      "name": "OwnershipTransferred",
      "type": "event"
    },
    {
      "anonymous": false,
      "inputs": [
        {
          "indexed": true,
          "internalType": "bytes32",
          "name": "role",
          "type": "bytes32"
        },
        {
          "indexed": true,
          "internalType": "bytes32",
          "name": "previousAdminRole",
          "type": "bytes32"
        },
        {
          "indexed": true,
          "internalType": "bytes32",
          "name": "newAdminRole",
          "type": "bytes32"
        }
      ],
      "name": "RoleAdminChanged",
      "type": "event"
    },
    {
      "anonymous": false,
      "inputs": [
        {
          "indexed": true,
          "internalType": "bytes32",
          "name": "role",
          "type": "bytes32"
        },
        {
          "indexed": true,
          "internalType": "address",
          "name": "account",
          "type": "address"
        },
        {
          "indexed": true,
          "internalType": "address",
          "name": "sender",
          "type": "address"
        }
      ],
      "name": "RoleGranted",
      "type": "event"
    },
    {
      "anonymous": false,
      "inputs": [
        {
          "indexed": true,
          "internalType": "bytes32",
          "name": "role",
          "type": "bytes32"
        },
        {
          "indexed": true,
          "internalType": "address",
          "name": "account",
          "type": "address"
        },
        {
          "indexed": true,
          "internalType": "address",
          "name": "sender",
          "type": "address"
        }
      ],
      "name": "RoleRevoked",
      "type": "event"
    },
    {
      "anonymous": false,
      "inputs": [
        {
          "indexed": true,
          "internalType": "address",
          "name": "operator",
          "type": "address"
        },
        {
          "indexed": true,
          "internalType": "address",
          "name": "from",
          "type": "address"
        },
        {
          "indexed": true,
          "internalType": "address",
          "name": "to",
          "type": "address"
        },
        {
          "indexed": false,
          "internalType": "uint256[]",
          "name": "ids",
          "type": "uint256[]"
        },
        {
          "indexed": false,
          "internalType": "uint256[]",
          "name": "values",
          "type": "uint256[]"
        }
      ],
      "name": "TransferBatch",
      "type": "event"
    },
    {
      "anonymous": false,
      "inputs": [
        {
          "indexed": true,
          "internalType": "address",
          "name": "operator",
          "type": "address"
        },
        {
          "indexed": true,
          "internalType": "address",
          "name": "from",
          "type": "address"
        },
        {
          "indexed": true,
          "internalType": "address",
          "name": "to",
          "type": "address"
        },
        {
          "indexed": false,
          "internalType": "uint256",
          "name": "id",
          "type": "uint256"
        },
        {
          "indexed": false,
          "internalType": "uint256",
          "name": "value",
          "type": "uint256"
        }
      ],
      "name": "TransferSingle",
      "type": "event"
    },
    {
      "anonymous": false,
      "inputs": [
        {
          "indexed": false,
          "internalType": "string",
          "name": "value",
          "type": "string"
        },
        {
          "indexed": true,
          "internalType": "uint256",
          "name": "id",
          "type": "uint256"
        }
      ],
      "name": "URI",
      "type": "event"
    },
    {
      "inputs": [],
      "name": "DEFAULT_ADMIN_ROLE",
      "outputs": [
        {
          "internalType": "bytes32",
          "name": "",
          "type": "bytes32"
        }
      ],
      "stateMutability": "view",
      "type": "function"
    },
    {
      "inputs": [],
      "name": "MINTER_ROLE",
      "outputs": [
        {
          "internalType": "bytes32",
          "name": "",
          "type": "bytes32"
        }
      ],
      "stateMutability": "view",
      "type": "function"
    },
    {
      "inputs": [
        {
          "internalType": "address",
          "name": "_account",
          "type": "address"
        }
      ],
      "name": "addAdmin",
      "outputs": [],
      "stateMutability": "nonpayable",
      "type": "function"
    },
    {
      "inputs": [
        {
          "internalType": "address",
          "name": "_account",
          "type": "address"
        }
      ],
      "name": "addMinter",
      "outputs": [],
      "stateMutability": "nonpayable",
      "type": "function"
    },
    {
      "inputs": [
        {
          "internalType": "address",
          "name": "account",
          "type": "address"
        },
        {
          "internalType": "uint256",
          "name": "id",
          "type": "uint256"
        }
      ],
      "name": "balanceOf",
      "outputs": [
        {
          "internalType": "uint256",
          "name": "",
          "type": "uint256"
        }
      ],
      "stateMutability": "view",
      "type": "function"
    },
    {
      "inputs": [
        {
          "internalType": "address[]",
          "name": "accounts",
          "type": "address[]"
        },
        {
          "internalType": "uint256[]",
          "name": "ids",
          "type": "uint256[]"
        }
      ],
      "name": "balanceOfBatch",
      "outputs": [
        {
          "internalType": "uint256[]",
          "name": "",
          "type": "uint256[]"
        }
      ],
      "stateMutability": "view",
      "type": "function"
    },
    {
      "inputs": [
        {
          "internalType": "address",
          "name": "_owner",
          "type": "address"
        },
        {
          "internalType": "uint256",
          "name": "_id",
          "type": "uint256"
        },
        {
          "internalType": "uint256",
          "name": "_value",
          "type": "uint256"
        }
      ],
      "name": "burn",
      "outputs": [],
      "stateMutability": "nonpayable",
      "type": "function"
    },
    {
      "inputs": [],
      "name": "contractURI",
      "outputs": [
        {
          "internalType": "string",
          "name": "",
          "type": "string"
        }
      ],
      "stateMutability": "view",
      "type": "function"
    },
    {
      "inputs": [
        {
          "internalType": "uint256",
          "name": "",
          "type": "uint256"
        }
      ],
      "name": "creators",
      "outputs": [
        {
          "internalType": "address",
          "name": "",
          "type": "address"
        }
      ],
      "stateMutability": "view",
      "type": "function"
    },
    {
      "inputs": [
        {
          "internalType": "bytes32",
          "name": "role",
          "type": "bytes32"
        }
      ],
      "name": "getRoleAdmin",
      "outputs": [
        {
          "internalType": "bytes32",
          "name": "",
          "type": "bytes32"
        }
      ],
      "stateMutability": "view",
      "type": "function"
    },
    {
      "inputs": [
        {
          "internalType": "bytes32",
          "name": "role",
          "type": "bytes32"
        },
        {
          "internalType": "address",
          "name": "account",
          "type": "address"
        }
      ],
      "name": "grantRole",
      "outputs": [],
      "stateMutability": "nonpayable",
      "type": "function"
    },
    {
      "inputs": [
        {
          "internalType": "bytes32",
          "name": "role",
          "type": "bytes32"
        },
        {
          "internalType": "address",
          "name": "account",
          "type": "address"
        }
      ],
      "name": "hasRole",
      "outputs": [
        {
          "internalType": "bool",
          "name": "",
          "type": "bool"
        }
      ],
      "stateMutability": "view",
      "type": "function"
    },
    {
      "inputs": [
        {
          "internalType": "address",
          "name": "account",
          "type": "address"
        },
        {
          "internalType": "address",
          "name": "operator",
          "type": "address"
        }
      ],
      "name": "isApprovedForAll",
      "outputs": [
        {
          "internalType": "bool",
          "name": "",
          "type": "bool"
        }
      ],
      "stateMutability": "view",
      "type": "function"
    },
    {
      "inputs": [
        {
          "internalType": "address",
          "name": "_beneficiary",
          "type": "address"
        },
        {
          "internalType": "uint256",
          "name": "_id",
          "type": "uint256"
        },
        {
          "internalType": "uint256",
          "name": "_supply",
          "type": "uint256"
        },
        {
          "internalType": "bool",
          "name": "_revealedFl",
          "type": "bool"
        }
      ],
      "name": "mint",
      "outputs": [
        {
          "internalType": "uint256",
          "name": "",
          "type": "uint256"
        }
      ],
      "stateMutability": "nonpayable",
      "type": "function"
    },
    {
      "inputs": [
        {
          "internalType": "address",
          "name": "_beneficiary",
          "type": "address"
        },
        {
          "internalType": "uint256[]",
          "name": "_supply",
          "type": "uint256[]"
        },
        {
          "internalType": "uint256[]",
          "name": "_tid",
          "type": "uint256[]"
        },
        {
          "internalType": "bool[]",
          "name": "_revealedFls",
          "type": "bool[]"
        }
      ],
      "name": "mintBatch",
      "outputs": [],
      "stateMutability": "nonpayable",
      "type": "function"
    },
    {
      "inputs": [],
      "name": "name",
      "outputs": [
        {
          "internalType": "string",
          "name": "",
          "type": "string"
        }
      ],
      "stateMutability": "view",
      "type": "function"
    },
    {
      "inputs": [],
      "name": "owner",
      "outputs": [
        {
          "internalType": "address",
          "name": "",
          "type": "address"
        }
      ],
      "stateMutability": "view",
      "type": "function"
    },
    {
      "inputs": [
        {
          "internalType": "address",
          "name": "_account",
          "type": "address"
        }
      ],
      "name": "removeAdmin",
      "outputs": [],
      "stateMutability": "nonpayable",
      "type": "function"
    },
    {
      "inputs": [
        {
          "internalType": "address",
          "name": "_account",
          "type": "address"
        }
      ],
      "name": "removeMinter",
      "outputs": [],
      "stateMutability": "nonpayable",
      "type": "function"
    },
    {
      "inputs": [],
      "name": "renounceOwnership",
      "outputs": [],
      "stateMutability": "nonpayable",
      "type": "function"
    },
    {
      "inputs": [
        {
          "internalType": "bytes32",
          "name": "role",
          "type": "bytes32"
        },
        {
          "internalType": "address",
          "name": "account",
          "type": "address"
        }
      ],
      "name": "renounceRole",
      "outputs": [],
      "stateMutability": "nonpayable",
      "type": "function"
    },
    {
      "inputs": [
        {
          "internalType": "uint256",
          "name": "_id",
          "type": "uint256"
        }
      ],
      "name": "revealSwitch",
      "outputs": [],
      "stateMutability": "nonpayable",
      "type": "function"
    },
    {
      "inputs": [
        {
          "internalType": "uint256[]",
          "name": "_ids",
          "type": "uint256[]"
        }
      ],
      "name": "revealSwitchBatch",
      "outputs": [],
      "stateMutability": "nonpayable",
      "type": "function"
    },
    {
      "inputs": [
        {
          "internalType": "uint256",
          "name": "",
          "type": "uint256"
        }
      ],
      "name": "revealedNfts",
      "outputs": [
        {
          "internalType": "bool",
          "name": "",
          "type": "bool"
        }
      ],
      "stateMutability": "view",
      "type": "function"
    },
    {
      "inputs": [
        {
          "internalType": "bytes32",
          "name": "role",
          "type": "bytes32"
        },
        {
          "internalType": "address",
          "name": "account",
          "type": "address"
        }
      ],
      "name": "revokeRole",
      "outputs": [],
      "stateMutability": "nonpayable",
      "type": "function"
    },
    {
      "inputs": [
        {
          "internalType": "uint256",
          "name": "tokenId",
          "type": "uint256"
        },
        {
          "internalType": "uint256",
          "name": "salePrice",
          "type": "uint256"
        }
      ],
      "name": "royaltyInfo",
      "outputs": [
        {
          "internalType": "address",
          "name": "receiver",
          "type": "address"
        },
        {
          "internalType": "uint256",
          "name": "royaltyAmount",
          "type": "uint256"
        }
      ],
      "stateMutability": "view",
      "type": "function"
    },
    {
      "inputs": [],
      "name": "royaltyPercent",
      "outputs": [
        {
          "internalType": "uint256",
          "name": "",
          "type": "uint256"
        }
      ],
      "stateMutability": "view",
      "type": "function"
    },
    {
      "inputs": [
        {
          "internalType": "address",
          "name": "from",
          "type": "address"
        },
        {
          "internalType": "address",
          "name": "to",
          "type": "address"
        },
        {
          "internalType": "uint256[]",
          "name": "ids",
          "type": "uint256[]"
        },
        {
          "internalType": "uint256[]",
          "name": "amounts",
          "type": "uint256[]"
        },
        {
          "internalType": "bytes",
          "name": "data",
          "type": "bytes"
        }
      ],
      "name": "safeBatchTransferFrom",
      "outputs": [],
      "stateMutability": "nonpayable",
      "type": "function"
    },
    {
      "inputs": [
        {
          "internalType": "address",
          "name": "from",
          "type": "address"
        },
        {
          "internalType": "address",
          "name": "to",
          "type": "address"
        },
        {
          "internalType": "uint256",
          "name": "id",
          "type": "uint256"
        },
        {
          "internalType": "uint256",
          "name": "amount",
          "type": "uint256"
        },
        {
          "internalType": "bytes",
          "name": "data",
          "type": "bytes"
        }
      ],
      "name": "safeTransferFrom",
      "outputs": [],
      "stateMutability": "nonpayable",
      "type": "function"
    },
    {
      "inputs": [
        {
          "internalType": "address",
          "name": "operator",
          "type": "address"
        },
        {
          "internalType": "bool",
          "name": "approved",
          "type": "bool"
        }
      ],
      "name": "setApprovalForAll",
      "outputs": [],
      "stateMutability": "nonpayable",
      "type": "function"
    },
    {
      "inputs": [
        {
          "internalType": "uint256",
          "name": "_royalty",
          "type": "uint256"
        }
      ],
      "name": "setRoyalty",
      "outputs": [],
      "stateMutability": "nonpayable",
      "type": "function"
    },
    {
      "inputs": [
        {
          "internalType": "bytes4",
          "name": "interfaceId",
          "type": "bytes4"
        }
      ],
      "name": "supportsInterface",
      "outputs": [
        {
          "internalType": "bool",
          "name": "",
          "type": "bool"
        }
      ],
      "stateMutability": "view",
      "type": "function"
    },
    {
      "inputs": [],
      "name": "symbol",
      "outputs": [
        {
          "internalType": "string",
          "name": "",
          "type": "string"
        }
      ],
      "stateMutability": "view",
      "type": "function"
    },
    {
      "inputs": [],
      "name": "tokenURIPrefix",
      "outputs": [
        {
          "internalType": "string",
          "name": "",
          "type": "string"
        }
      ],
      "stateMutability": "view",
      "type": "function"
    },
    {
      "inputs": [
        {
          "internalType": "address",
          "name": "newOwner",
          "type": "address"
        }
      ],
      "name": "transferOwnership",
      "outputs": [],
      "stateMutability": "nonpayable",
      "type": "function"
    },
    {
      "inputs": [
        {
          "internalType": "uint256",
          "name": "_id",
          "type": "uint256"
        }
      ],
      "name": "uri",
      "outputs": [
        {
          "internalType": "string",
          "name": "",
          "type": "string"
        }
      ],
      "stateMutability": "view",
      "type": "function"
    }
  ],
  "bytecode": "0x60806040523480156200001157600080fd5b50604051620068e3380380620068e383398181016040528101906200003791906200077a565b81620000586200004c6200014860201b60201c565b6200015060201b60201c565b62000069816200021460201b60201c565b506200008e6000801b620000826200014860201b60201c565b6200022960201b60201c565b83600690816200009f919062000a8a565b508260079081620000b1919062000a8a565b5081600b9081620000c3919062000a8a565b50806008819055506000600c60006101000a81548160ff02191690831515021790555062000106620000fa6200014860201b60201c565b6200023f60201b60201c565b620001266200011a6200014860201b60201c565b620002b960201b60201c565b6200013e632a55205a60e01b6200035060201b60201c565b5050505062000c66565b600033905090565b60008060009054906101000a900473ffffffffffffffffffffffffffffffffffffffff169050816000806101000a81548173ffffffffffffffffffffffffffffffffffffffff021916908373ffffffffffffffffffffffffffffffffffffffff1602179055508173ffffffffffffffffffffffffffffffffffffffff168173ffffffffffffffffffffffffffffffffffffffff167f8be0079c531659141344cd1fd0a4f28419497f9722a3daafe3b4186f6b6457e060405160405180910390a35050565b806004908162000225919062000a8a565b5050565b6200023b82826200042760201b60201c565b5050565b6200025f620002536200014860201b60201c565b6200051960201b60201c565b620002a1576040517f08c379a0000000000000000000000000000000000000000000000000000000008152600401620002989062000bd2565b60405180910390fd5b620002b66000801b826200022960201b60201c565b50565b620002d9620002cd6200014860201b60201c565b6200051960201b60201c565b6200031b576040517f08c379a0000000000000000000000000000000000000000000000000000000008152600401620003129062000bd2565b60405180910390fd5b6200034d7f9f2df0fed2c77648de5860a4cc508cd0818c85b8b8a1ab4ceeef8d981c8956a6826200022960201b60201c565b50565b63ffffffff60e01b817bffffffffffffffffffffffffffffffffffffffffffffffffffffffff191603620003bb576040517f08c379a0000000000000000000000000000000000000000000000000000000008152600401620003b29062000c44565b60405180910390fd5b6001806000837bffffffffffffffffffffffffffffffffffffffffffffffffffffffff19167bffffffffffffffffffffffffffffffffffffffffffffffffffffffff1916815260200190815260200160002060006101000a81548160ff02191690831515021790555050565b6200043982826200053760201b60201c565b620005155760016005600084815260200190815260200160002060000160008373ffffffffffffffffffffffffffffffffffffffff1673ffffffffffffffffffffffffffffffffffffffff16815260200190815260200160002060006101000a81548160ff021916908315150217905550620004ba6200014860201b60201c565b73ffffffffffffffffffffffffffffffffffffffff168173ffffffffffffffffffffffffffffffffffffffff16837f2f8788117e7eff1d82e926ec794901d17c78024a50270940304540a733656f0d60405160405180910390a45b5050565b6000620005306000801b836200053760201b60201c565b9050919050565b60006005600084815260200190815260200160002060000160008373ffffffffffffffffffffffffffffffffffffffff1673ffffffffffffffffffffffffffffffffffffffff16815260200190815260200160002060009054906101000a900460ff16905092915050565b6000604051905090565b600080fd5b600080fd5b600080fd5b600080fd5b6000601f19601f8301169050919050565b7f4e487b7100000000000000000000000000000000000000000000000000000000600052604160045260246000fd5b6200060b82620005c0565b810181811067ffffffffffffffff821117156200062d576200062c620005d1565b5b80604052505050565b600062000642620005a2565b905062000650828262000600565b919050565b600067ffffffffffffffff821115620006735762000672620005d1565b5b6200067e82620005c0565b9050602081019050919050565b60005b83811015620006ab5780820151818401526020810190506200068e565b83811115620006bb576000848401525b50505050565b6000620006d8620006d28462000655565b62000636565b905082815260208101848484011115620006f757620006f6620005bb565b5b620007048482856200068b565b509392505050565b600082601f830112620007245762000723620005b6565b5b815162000736848260208601620006c1565b91505092915050565b6000819050919050565b62000754816200073f565b81146200076057600080fd5b50565b600081519050620007748162000749565b92915050565b60008060008060808587031215620007975762000796620005ac565b5b600085015167ffffffffffffffff811115620007b857620007b7620005b1565b5b620007c6878288016200070c565b945050602085015167ffffffffffffffff811115620007ea57620007e9620005b1565b5b620007f8878288016200070c565b935050604085015167ffffffffffffffff8111156200081c576200081b620005b1565b5b6200082a878288016200070c565b92505060606200083d8782880162000763565b91505092959194509250565b600081519050919050565b7f4e487b7100000000000000000000000000000000000000000000000000000000600052602260045260246000fd5b600060028204905060018216806200089c57607f821691505b602082108103620008b257620008b162000854565b5b50919050565b60008190508160005260206000209050919050565b60006020601f8301049050919050565b600082821b905092915050565b6000600883026200091c7fffffffffffffffffffffffffffffffffffffffffffffffffffffffffffffffff82620008dd565b620009288683620008dd565b95508019841693508086168417925050509392505050565b6000819050919050565b60006200096b620009656200095f846200073f565b62000940565b6200073f565b9050919050565b6000819050919050565b62000987836200094a565b6200099f620009968262000972565b848454620008ea565b825550505050565b600090565b620009b6620009a7565b620009c38184846200097c565b505050565b5b81811015620009eb57620009df600082620009ac565b600181019050620009c9565b5050565b601f82111562000a3a5762000a0481620008b8565b62000a0f84620008cd565b8101602085101562000a1f578190505b62000a3762000a2e85620008cd565b830182620009c8565b50505b505050565b600082821c905092915050565b600062000a5f6000198460080262000a3f565b1980831691505092915050565b600062000a7a838362000a4c565b9150826002028217905092915050565b62000a958262000849565b67ffffffffffffffff81111562000ab15762000ab0620005d1565b5b62000abd825462000883565b62000aca828285620009ef565b600060209050601f83116001811462000b02576000841562000aed578287015190505b62000af9858262000a6c565b86555062000b69565b601f19841662000b1286620008b8565b60005b8281101562000b3c5784890151825560018201915060208501945060208101905062000b15565b8683101562000b5c578489015162000b58601f89168262000a4c565b8355505b6001600288020188555050505b505050505050565b600082825260208201905092915050565b7f4f776e61626c653a2063616c6c6572206973206e6f74207468652061646d696e600082015250565b600062000bba60208362000b71565b915062000bc78262000b82565b602082019050919050565b6000602082019050818103600083015262000bed8162000bab565b9050919050565b7f4552433136353a20696e76616c696420696e7465726661636520696400000000600082015250565b600062000c2c601c8362000b71565b915062000c398262000bf4565b602082019050919050565b6000602082019050818103600083015262000c5f8162000c1d565b9050919050565b615c6d8062000c766000396000f3fe608060405234801561001057600080fd5b506004361061021b5760003560e01c806391d1485411610125578063d5391393116100ad578063e8a3d4851161007c578063e8a3d48514610649578063e985e9c514610667578063f242432a14610697578063f2fde38b146106b3578063f5298aca146106cf5761021b565b8063d5391393146105c3578063d547741f146105e1578063dbf110a7146105fd578063e46280a41461062d5761021b565b80639f67756d116100f45780639f67756d1461051d578063a217fddf1461053b578063a22cb46514610559578063c0ac998314610575578063cd53d08e146105935761021b565b806391d148541461049757806395d89b41146104c7578063983b2d56146104e55780639d1dc75f146105015761021b565b80633092afd5116101a85780634e1273f4116101775780634e1273f414610407578063603d02e9146104375780637048027514610453578063715018a61461046f5780638da5cb5b146104795761021b565b80633092afd51461038357806336568abe1461039f5780634209a2e1146103bb5780634211d2f3146103d75761021b565b80631785f53c116101ef5780631785f53c146102ce578063248a9ca3146102ea5780632a55205a1461031a5780632eb2c2d61461034b5780632f2ff15d146103675761021b565b8062fdd58e1461022057806301ffc9a71461025057806306fdde03146102805780630e89341c1461029e575b600080fd5b61023a60048036038101906102359190613b0d565b6106eb565b6040516102479190613b5c565b60405180910390f35b61026a60048036038101906102659190613bcf565b6107b4565b6040516102779190613c17565b60405180910390f35b6102886108fe565b6040516102959190613ccb565b60405180910390f35b6102b860048036038101906102b39190613ced565b61098c565b6040516102c59190613ccb565b60405180910390f35b6102e860048036038101906102e39190613d1a565b610b52565b005b61030460048036038101906102ff9190613d7d565b610bb1565b6040516103119190613db9565b60405180910390f35b610334600480360381019061032f9190613dd4565b610bd1565b604051610342929190613e23565b60405180910390f35b61036560048036038101906103609190614049565b610c3b565b005b610381600480360381019061037c9190614118565b610cdc565b005b61039d60048036038101906103989190613d1a565b610cfd565b005b6103b960048036038101906103b49190614118565b610d79565b005b6103d560048036038101906103d09190613ced565b610dfc565b005b6103f160048036038101906103ec9190613ced565b610e55565b6040516103fe9190613c17565b60405180910390f35b610421600480360381019061041c919061421b565b610e75565b60405161042e9190614351565b60405180910390f35b610451600480360381019061044c9190613ced565b610f8e565b005b61046d60048036038101906104689190613d1a565b611139565b005b610477611198565b005b610481611220565b60405161048e9190614373565b60405180910390f35b6104b160048036038101906104ac9190614118565b611249565b6040516104be9190613c17565b60405180910390f35b6104cf6112b4565b6040516104dc9190613ccb565b60405180910390f35b6104ff60048036038101906104fa9190613d1a565b611342565b005b61051b6004803603810190610516919061438e565b6113be565b005b61052561160b565b6040516105329190613b5c565b60405180910390f35b610543611611565b6040516105509190613db9565b60405180910390f35b610573600480360381019061056e9190614403565b611618565b005b61057d61162e565b60405161058a9190613ccb565b60405180910390f35b6105ad60048036038101906105a89190613ced565b6116bc565b6040516105ba9190614373565b60405180910390f35b6105cb6116ef565b6040516105d89190613db9565b60405180910390f35b6105fb60048036038101906105f69190614118565b611713565b005b61061760048036038101906106129190614443565b611734565b6040516106249190613b5c565b60405180910390f35b6106476004803603810190610642919061456d565b6117b6565b005b61065161185b565b60405161065e9190613ccb565b60405180910390f35b610681600480360381019061067c9190614628565b6118af565b60405161068e9190613c17565b60405180910390f35b6106b160048036038101906106ac9190614668565b611943565b005b6106cd60048036038101906106c89190613d1a565b6119e4565b005b6106e960048036038101906106e491906146ff565b611adb565b005b60008073ffffffffffffffffffffffffffffffffffffffff168373ffffffffffffffffffffffffffffffffffffffff160361075b576040517f08c379a0000000000000000000000000000000000000000000000000000000008152600401610752906147c4565b60405180910390fd5b6002600083815260200190815260200160002060008473ffffffffffffffffffffffffffffffffffffffff1673ffffffffffffffffffffffffffffffffffffffff16815260200190815260200160002054905092915050565b60007fd9b67a26000000000000000000000000000000000000000000000000000000007bffffffffffffffffffffffffffffffffffffffffffffffffffffffff1916827bffffffffffffffffffffffffffffffffffffffffffffffffffffffff1916148061087f57507f0e89341c000000000000000000000000000000000000000000000000000000007bffffffffffffffffffffffffffffffffffffffffffffffffffffffff1916827bffffffffffffffffffffffffffffffffffffffffffffffffffffffff1916145b806108e757507f7965db0b000000000000000000000000000000000000000000000000000000007bffffffffffffffffffffffffffffffffffffffffffffffffffffffff1916827bffffffffffffffffffffffffffffffffffffffffffffffffffffffff1916145b806108f757506108f682611b71565b5b9050919050565b6006805461090b90614813565b80601f016020809104026020016040519081016040528092919081815260200182805461093790614813565b80156109845780601f1061095957610100808354040283529160200191610984565b820191906000526020600020905b81548152906001019060200180831161096757829003601f168201915b505050505081565b6060600073ffffffffffffffffffffffffffffffffffffffff166009600084815260200190815260200160002060009054906101000a900473ffffffffffffffffffffffffffffffffffffffff1673ffffffffffffffffffffffffffffffffffffffff1603610a30576040517f08c379a0000000000000000000000000000000000000000000000000000000008152600401610a2790614890565b60405180910390fd5b60011515600a600084815260200190815260200160002060009054906101000a900460ff16151503610aba576000600b8054610a6b90614813565b905011610a875760405180602001604052806000815250610ab3565b600b610a9283611beb565b604051602001610aa39291906149d0565b6040516020818303038152906040525b9050610b4d565b60001515600a600084815260200190815260200160002060009054906101000a900460ff16151503610b3a576000600b8054610af590614813565b905011610b115760405180602001604052806000815250610b33565b600b604051602001610b239190614a4b565b6040516020818303038152906040525b9050610b4d565b6040518060200160405280600081525090505b919050565b610b62610b5d611d4b565b611d53565b610ba1576040517f08c379a0000000000000000000000000000000000000000000000000000000008152600401610b9890614ab9565b60405180910390fd5b610bae6000801b82611713565b50565b600060056000838152602001908152602001600020600101549050919050565b6000806009600085815260200190815260200160002060009054906101000a900473ffffffffffffffffffffffffffffffffffffffff169150610c326064610c2460085486611d6990919063ffffffff16565b611d7f90919063ffffffff16565b90509250929050565b610c43611d4b565b73ffffffffffffffffffffffffffffffffffffffff168573ffffffffffffffffffffffffffffffffffffffff161480610c895750610c8885610c83611d4b565b6118af565b5b610cc8576040517f08c379a0000000000000000000000000000000000000000000000000000000008152600401610cbf90614b4b565b60405180910390fd5b610cd58585858585611d95565b5050505050565b610ce582610bb1565b610cee816120b9565b610cf883836120cd565b505050565b610d0d610d08611d4b565b611d53565b610d4c576040517f08c379a0000000000000000000000000000000000000000000000000000000008152600401610d4390614ab9565b60405180910390fd5b610d767f9f2df0fed2c77648de5860a4cc508cd0818c85b8b8a1ab4ceeef8d981c8956a682611713565b50565b610d81611d4b565b73ffffffffffffffffffffffffffffffffffffffff168173ffffffffffffffffffffffffffffffffffffffff1614610dee576040517f08c379a0000000000000000000000000000000000000000000000000000000008152600401610de590614bdd565b60405180910390fd5b610df882826121ae565b5050565b610e0c610e07611d4b565b611d53565b610e4b576040517f08c379a0000000000000000000000000000000000000000000000000000000008152600401610e4290614ab9565b60405180910390fd5b8060088190555050565b600a6020528060005260406000206000915054906101000a900460ff1681565b60608151835114610ebb576040517f08c379a0000000000000000000000000000000000000000000000000000000008152600401610eb290614c6f565b60405180910390fd5b6000835167ffffffffffffffff811115610ed857610ed7613e51565b5b604051908082528060200260200182016040528015610f065781602001602082028036833780820191505090505b50905060005b8451811015610f8357610f53858281518110610f2b57610f2a614c8f565b5b6020026020010151858381518110610f4657610f45614c8f565b5b60200260200101516106eb565b828281518110610f6657610f65614c8f565b5b60200260200101818152505080610f7c90614ced565b9050610f0c565b508091505092915050565b610f9e610f99611d4b565b612290565b610fdd576040517f08c379a0000000000000000000000000000000000000000000000000000000008152600401610fd490614da7565b60405180910390fd5b600073ffffffffffffffffffffffffffffffffffffffff166009600083815260200190815260200160002060009054906101000a900473ffffffffffffffffffffffffffffffffffffffff1673ffffffffffffffffffffffffffffffffffffffff160361107f576040517f08c379a000000000000000000000000000000000000000000000000000000000815260040161107690614890565b60405180910390fd5b60011515600a600083815260200190815260200160002060009054906101000a900460ff161515036110dc576000600a600083815260200190815260200160002060006101000a81548160ff021916908315150217905550611136565b60001515600a600083815260200190815260200160002060009054906101000a900460ff16151503611135576001600a600083815260200190815260200160002060006101000a81548160ff0219169083151502179055505b5b50565b611149611144611d4b565b611d53565b611188576040517f08c379a000000000000000000000000000000000000000000000000000000000815260040161117f90614ab9565b60405180910390fd5b6111956000801b826122c3565b50565b6111a0611d4b565b73ffffffffffffffffffffffffffffffffffffffff166111be611220565b73ffffffffffffffffffffffffffffffffffffffff1614611214576040517f08c379a000000000000000000000000000000000000000000000000000000000815260040161120b90614e13565b60405180910390fd5b61121e60006122d1565b565b60008060009054906101000a900473ffffffffffffffffffffffffffffffffffffffff16905090565b60006005600084815260200190815260200160002060000160008373ffffffffffffffffffffffffffffffffffffffff1673ffffffffffffffffffffffffffffffffffffffff16815260200190815260200160002060009054906101000a900460ff16905092915050565b600780546112c190614813565b80601f01602080910402602001604051908101604052809291908181526020018280546112ed90614813565b801561133a5780601f1061130f5761010080835404028352916020019161133a565b820191906000526020600020905b81548152906001019060200180831161131d57829003601f168201915b505050505081565b61135261134d611d4b565b611d53565b611391576040517f08c379a000000000000000000000000000000000000000000000000000000000815260040161138890614ab9565b60405180910390fd5b6113bb7f9f2df0fed2c77648de5860a4cc508cd0818c85b8b8a1ab4ceeef8d981c8956a6826122c3565b50565b6113ce6113c9611d4b565b612290565b61140d576040517f08c379a000000000000000000000000000000000000000000000000000000000815260040161140490614da7565b60405180910390fd5b60005b815181101561160757600073ffffffffffffffffffffffffffffffffffffffff166009600084848151811061144857611447614c8f565b5b6020026020010151815260200190815260200160002060009054906101000a900473ffffffffffffffffffffffffffffffffffffffff1673ffffffffffffffffffffffffffffffffffffffff16036114d5576040517f08c379a00000000000000000000000000000000000000000000000000000000081526004016114cc90614890565b60405180910390fd5b60011515600a60008484815181106114f0576114ef614c8f565b5b6020026020010151815260200190815260200160002060009054906101000a900460ff16151503611566576000600a600084848151811061153457611533614c8f565b5b6020026020010151815260200190815260200160002060006101000a81548160ff0219169083151502179055506115f4565b60001515600a600084848151811061158157611580614c8f565b5b6020026020010151815260200190815260200160002060009054906101000a900460ff161515036115f3576001600a60008484815181106115c5576115c4614c8f565b5b6020026020010151815260200190815260200160002060006101000a81548160ff0219169083151502179055505b5b80806115ff90614ced565b915050611410565b5050565b60085481565b6000801b81565b61162a611623611d4b565b8383612395565b5050565b600b805461163b90614813565b80601f016020809104026020016040519081016040528092919081815260200182805461166790614813565b80156116b45780601f10611689576101008083540402835291602001916116b4565b820191906000526020600020905b81548152906001019060200180831161169757829003601f168201915b505050505081565b60096020528060005260406000206000915054906101000a900473ffffffffffffffffffffffffffffffffffffffff1681565b7f9f2df0fed2c77648de5860a4cc508cd0818c85b8b8a1ab4ceeef8d981c8956a681565b61171c82610bb1565b611725816120b9565b61172f83836121ae565b505050565b6000611746611741611d4b565b612290565b611785576040517f08c379a000000000000000000000000000000000000000000000000000000000815260040161177c90614da7565b60405180910390fd5b81600c60006101000a81548160ff0219169083151502179055506117ab85858585612501565b839050949350505050565b6117c66117c1611d4b565b612290565b611805576040517f08c379a00000000000000000000000000000000000000000000000000000000081526004016117fc90614da7565b60405180910390fd5b6015825110611849576040517f08c379a000000000000000000000000000000000000000000000000000000000815260040161184090614ea5565b60405180910390fd5b61185584838584612684565b50505050565b60606000600b805461186c90614813565b90501161188857604051806020016040528060008152506118aa565b600b60405160200161189a9190614f11565b6040516020818303038152906040525b905090565b6000600360008473ffffffffffffffffffffffffffffffffffffffff1673ffffffffffffffffffffffffffffffffffffffff16815260200190815260200160002060008373ffffffffffffffffffffffffffffffffffffffff1673ffffffffffffffffffffffffffffffffffffffff16815260200190815260200160002060009054906101000a900460ff16905092915050565b61194b611d4b565b73ffffffffffffffffffffffffffffffffffffffff168573ffffffffffffffffffffffffffffffffffffffff16148061199157506119908561198b611d4b565b6118af565b5b6119d0576040517f08c379a00000000000000000000000000000000000000000000000000000000081526004016119c790614fa5565b60405180910390fd5b6119dd85858585856128a9565b5050505050565b6119ec611d4b565b73ffffffffffffffffffffffffffffffffffffffff16611a0a611220565b73ffffffffffffffffffffffffffffffffffffffff1614611a60576040517f08c379a0000000000000000000000000000000000000000000000000000000008152600401611a5790614e13565b60405180910390fd5b600073ffffffffffffffffffffffffffffffffffffffff168173ffffffffffffffffffffffffffffffffffffffff1603611acf576040517f08c379a0000000000000000000000000000000000000000000000000000000008152600401611ac690615037565b60405180910390fd5b611ad8816122d1565b50565b3373ffffffffffffffffffffffffffffffffffffffff168373ffffffffffffffffffffffffffffffffffffffff161480611b22575060011515611b1e84336118af565b1515145b611b61576040517f08c379a0000000000000000000000000000000000000000000000000000000008152600401611b58906150c9565b60405180910390fd5b611b6c838383612b47565b505050565b60007f7965db0b000000000000000000000000000000000000000000000000000000007bffffffffffffffffffffffffffffffffffffffffffffffffffffffff1916827bffffffffffffffffffffffffffffffffffffffffffffffffffffffff19161480611be45750611be382612d8f565b5b9050919050565b606060008203611c32576040518060400160405280600181526020017f30000000000000000000000000000000000000000000000000000000000000008152509050611d46565b600082905060005b60008214611c64578080611c4d90614ced565b915050600a82611c5d9190615118565b9150611c3a565b60008167ffffffffffffffff811115611c8057611c7f613e51565b5b6040519080825280601f01601f191660200182016040528015611cb25781602001600182028036833780820191505090505b5090505b60008514611d3f57600182611ccb9190615149565b9150600a85611cda919061517d565b6030611ce691906151ae565b60f81b818381518110611cfc57611cfb614c8f565b5b60200101907effffffffffffffffffffffffffffffffffffffffffffffffffffffffffffff1916908160001a905350600a85611d389190615118565b9450611cb6565b8093505050505b919050565b600033905090565b6000611d626000801b83611249565b9050919050565b60008183611d779190615204565b905092915050565b60008183611d8d9190615118565b905092915050565b8151835114611dd9576040517f08c379a0000000000000000000000000000000000000000000000000000000008152600401611dd0906152d0565b60405180910390fd5b600073ffffffffffffffffffffffffffffffffffffffff168473ffffffffffffffffffffffffffffffffffffffff1603611e48576040517f08c379a0000000000000000000000000000000000000000000000000000000008152600401611e3f90615362565b60405180910390fd5b6000611e52611d4b565b9050611e62818787878787612e71565b60005b8451811015612016576000858281518110611e8357611e82614c8f565b5b602002602001015190506000858381518110611ea257611ea1614c8f565b5b6020026020010151905060006002600084815260200190815260200160002060008b73ffffffffffffffffffffffffffffffffffffffff1673ffffffffffffffffffffffffffffffffffffffff16815260200190815260200160002054905081811015611f44576040517f08c379a0000000000000000000000000000000000000000000000000000000008152600401611f3b906153f4565b60405180910390fd5b8181036002600085815260200190815260200160002060008c73ffffffffffffffffffffffffffffffffffffffff1673ffffffffffffffffffffffffffffffffffffffff16815260200190815260200160002081905550816002600085815260200190815260200160002060008b73ffffffffffffffffffffffffffffffffffffffff1673ffffffffffffffffffffffffffffffffffffffff1681526020019081526020016000206000828254611ffb91906151ae565b925050819055505050508061200f90614ced565b9050611e65565b508473ffffffffffffffffffffffffffffffffffffffff168673ffffffffffffffffffffffffffffffffffffffff168273ffffffffffffffffffffffffffffffffffffffff167f4a39dc06d4c0dbc64b70af90fd698a233a518aa5d07e595d983b8c0526c8f7fb878760405161208d929190615414565b60405180910390a46120a3818787878787612e79565b6120b1818787878787612e81565b505050505050565b6120ca816120c5611d4b565b613058565b50565b6120d78282611249565b6121aa5760016005600084815260200190815260200160002060000160008373ffffffffffffffffffffffffffffffffffffffff1673ffffffffffffffffffffffffffffffffffffffff16815260200190815260200160002060006101000a81548160ff02191690831515021790555061214f611d4b565b73ffffffffffffffffffffffffffffffffffffffff168173ffffffffffffffffffffffffffffffffffffffff16837f2f8788117e7eff1d82e926ec794901d17c78024a50270940304540a733656f0d60405160405180910390a45b5050565b6121b88282611249565b1561228c5760006005600084815260200190815260200160002060000160008373ffffffffffffffffffffffffffffffffffffffff1673ffffffffffffffffffffffffffffffffffffffff16815260200190815260200160002060006101000a81548160ff021916908315150217905550612231611d4b565b73ffffffffffffffffffffffffffffffffffffffff168173ffffffffffffffffffffffffffffffffffffffff16837ff6391f5c32d9c69d2a47ea670b442974b53935d1edc7fd64eb21e047a839171b60405160405180910390a45b5050565b60006122bc7f9f2df0fed2c77648de5860a4cc508cd0818c85b8b8a1ab4ceeef8d981c8956a683611249565b9050919050565b6122cd82826120cd565b5050565b60008060009054906101000a900473ffffffffffffffffffffffffffffffffffffffff169050816000806101000a81548173ffffffffffffffffffffffffffffffffffffffff021916908373ffffffffffffffffffffffffffffffffffffffff1602179055508173ffffffffffffffffffffffffffffffffffffffff168173ffffffffffffffffffffffffffffffffffffffff167f8be0079c531659141344cd1fd0a4f28419497f9722a3daafe3b4186f6b6457e060405160405180910390a35050565b8173ffffffffffffffffffffffffffffffffffffffff168373ffffffffffffffffffffffffffffffffffffffff1603612403576040517f08c379a00000000000000000000000000000000000000000000000000000000081526004016123fa906154bd565b60405180910390fd5b80600360008573ffffffffffffffffffffffffffffffffffffffff1673ffffffffffffffffffffffffffffffffffffffff16815260200190815260200160002060008473ffffffffffffffffffffffffffffffffffffffff1673ffffffffffffffffffffffffffffffffffffffff16815260200190815260200160002060006101000a81548160ff0219169083151502179055508173ffffffffffffffffffffffffffffffffffffffff168373ffffffffffffffffffffffffffffffffffffffff167f17307eab39ab6107e8899845ad3d59bd9653f200f220920489ca2b5937696c31836040516124f49190613c17565b60405180910390a3505050565b600073ffffffffffffffffffffffffffffffffffffffff166009600085815260200190815260200160002060009054906101000a900473ffffffffffffffffffffffffffffffffffffffff1673ffffffffffffffffffffffffffffffffffffffff16146125a3576040517f08c379a000000000000000000000000000000000000000000000000000000000815260040161259a90615529565b60405180910390fd5b600082036125e6576040517f08c379a00000000000000000000000000000000000000000000000000000000081526004016125dd90615595565b60405180910390fd5b336009600085815260200190815260200160002060006101000a81548173ffffffffffffffffffffffffffffffffffffffff021916908373ffffffffffffffffffffffffffffffffffffffff16021790555080600a600085815260200190815260200160002060006101000a81548160ff02191690831515021790555061267e848484604051806020016040528060008152506130f5565b50505050565b60005b835181101561288757600073ffffffffffffffffffffffffffffffffffffffff16600960008684815181106126bf576126be614c8f565b5b6020026020010151815260200190815260200160002060009054906101000a900473ffffffffffffffffffffffffffffffffffffffff1673ffffffffffffffffffffffffffffffffffffffff161461274c576040517f08c379a000000000000000000000000000000000000000000000000000000000815260040161274390615529565b60405180910390fd5b600083828151811061276157612760614c8f565b5b6020026020010151036127a9576040517f08c379a00000000000000000000000000000000000000000000000000000000081526004016127a090615595565b60405180910390fd5b33600960008684815181106127c1576127c0614c8f565b5b6020026020010151815260200190815260200160002060006101000a81548173ffffffffffffffffffffffffffffffffffffffff021916908373ffffffffffffffffffffffffffffffffffffffff16021790555081818151811061282857612827614c8f565b5b6020026020010151600a600086848151811061284757612846614c8f565b5b6020026020010151815260200190815260200160002060006101000a81548160ff021916908315150217905550808061287f90614ced565b915050612687565b506128a3848484604051806020016040528060008152506132a6565b50505050565b600073ffffffffffffffffffffffffffffffffffffffff168473ffffffffffffffffffffffffffffffffffffffff1603612918576040517f08c379a000000000000000000000000000000000000000000000000000000000815260040161290f90615362565b60405180910390fd5b6000612922611d4b565b9050600061292f856134d3565b9050600061293c856134d3565b905061294c838989858589612e71565b60006002600088815260200190815260200160002060008a73ffffffffffffffffffffffffffffffffffffffff1673ffffffffffffffffffffffffffffffffffffffff168152602001908152602001600020549050858110156129e4576040517f08c379a00000000000000000000000000000000000000000000000000000000081526004016129db906153f4565b60405180910390fd5b8581036002600089815260200190815260200160002060008b73ffffffffffffffffffffffffffffffffffffffff1673ffffffffffffffffffffffffffffffffffffffff16815260200190815260200160002081905550856002600089815260200190815260200160002060008a73ffffffffffffffffffffffffffffffffffffffff1673ffffffffffffffffffffffffffffffffffffffff1681526020019081526020016000206000828254612a9b91906151ae565b925050819055508773ffffffffffffffffffffffffffffffffffffffff168973ffffffffffffffffffffffffffffffffffffffff168573ffffffffffffffffffffffffffffffffffffffff167fc3d58168c5ae7397731d063d5bbf3d657854427343f4c083240f7aacaa2d0f628a8a604051612b189291906155b5565b60405180910390a4612b2e848a8a86868a612e79565b612b3c848a8a8a8a8a61354d565b505050505050505050565b600073ffffffffffffffffffffffffffffffffffffffff168373ffffffffffffffffffffffffffffffffffffffff1603612bb6576040517f08c379a0000000000000000000000000000000000000000000000000000000008152600401612bad90615650565b60405180910390fd5b6000612bc0611d4b565b90506000612bcd846134d3565b90506000612bda846134d3565b9050612bfa83876000858560405180602001604052806000815250612e71565b60006002600087815260200190815260200160002060008873ffffffffffffffffffffffffffffffffffffffff1673ffffffffffffffffffffffffffffffffffffffff16815260200190815260200160002054905084811015612c92576040517f08c379a0000000000000000000000000000000000000000000000000000000008152600401612c89906156e2565b60405180910390fd5b8481036002600088815260200190815260200160002060008973ffffffffffffffffffffffffffffffffffffffff1673ffffffffffffffffffffffffffffffffffffffff16815260200190815260200160002081905550600073ffffffffffffffffffffffffffffffffffffffff168773ffffffffffffffffffffffffffffffffffffffff168573ffffffffffffffffffffffffffffffffffffffff167fc3d58168c5ae7397731d063d5bbf3d657854427343f4c083240f7aacaa2d0f628989604051612d609291906155b5565b60405180910390a4612d8684886000868660405180602001604052806000815250612e79565b50505050505050565b60007fd9b67a26000000000000000000000000000000000000000000000000000000007bffffffffffffffffffffffffffffffffffffffffffffffffffffffff1916827bffffffffffffffffffffffffffffffffffffffffffffffffffffffff19161480612e5a57507f0e89341c000000000000000000000000000000000000000000000000000000007bffffffffffffffffffffffffffffffffffffffffffffffffffffffff1916827bffffffffffffffffffffffffffffffffffffffffffffffffffffffff1916145b80612e6a5750612e6982613724565b5b9050919050565b505050505050565b505050505050565b612ea08473ffffffffffffffffffffffffffffffffffffffff1661379c565b15613050578373ffffffffffffffffffffffffffffffffffffffff1663bc197c8187878686866040518663ffffffff1660e01b8152600401612ee6959493929190615757565b6020604051808303816000875af1925050508015612f2257506040513d601f19601f82011682018060405250810190612f1f91906157d4565b60015b612fc757612f2e61580e565b806308c379a003612f8a5750612f42615830565b80612f4d5750612f8c565b806040517f08c379a0000000000000000000000000000000000000000000000000000000008152600401612f819190613ccb565b60405180910390fd5b505b6040517f08c379a0000000000000000000000000000000000000000000000000000000008152600401612fbe90615932565b60405180910390fd5b63bc197c8160e01b7bffffffffffffffffffffffffffffffffffffffffffffffffffffffff1916817bffffffffffffffffffffffffffffffffffffffffffffffffffffffff19161461304e576040517f08c379a0000000000000000000000000000000000000000000000000000000008152600401613045906159c4565b60405180910390fd5b505b505050505050565b6130628282611249565b6130f1576130878173ffffffffffffffffffffffffffffffffffffffff1660146137bf565b6130958360001c60206137bf565b6040516020016130a6929190615a7c565b6040516020818303038152906040526040517f08c379a00000000000000000000000000000000000000000000000000000000081526004016130e89190613ccb565b60405180910390fd5b5050565b600073ffffffffffffffffffffffffffffffffffffffff168473ffffffffffffffffffffffffffffffffffffffff1603613164576040517f08c379a000000000000000000000000000000000000000000000000000000000815260040161315b90615b28565b60405180910390fd5b600061316e611d4b565b9050600061317b856134d3565b90506000613188856134d3565b905061319983600089858589612e71565b846002600088815260200190815260200160002060008973ffffffffffffffffffffffffffffffffffffffff1673ffffffffffffffffffffffffffffffffffffffff16815260200190815260200160002060008282546131f991906151ae565b925050819055508673ffffffffffffffffffffffffffffffffffffffff16600073ffffffffffffffffffffffffffffffffffffffff168473ffffffffffffffffffffffffffffffffffffffff167fc3d58168c5ae7397731d063d5bbf3d657854427343f4c083240f7aacaa2d0f6289896040516132779291906155b5565b60405180910390a461328e83600089858589612e79565b61329d8360008989898961354d565b50505050505050565b600073ffffffffffffffffffffffffffffffffffffffff168473ffffffffffffffffffffffffffffffffffffffff1603613315576040517f08c379a000000000000000000000000000000000000000000000000000000000815260040161330c90615b28565b60405180910390fd5b8151835114613359576040517f08c379a0000000000000000000000000000000000000000000000000000000008152600401613350906152d0565b60405180910390fd5b6000613363611d4b565b905061337481600087878787612e71565b60005b845181101561342e5783818151811061339357613392614c8f565b5b6020026020010151600260008784815181106133b2576133b1614c8f565b5b6020026020010151815260200190815260200160002060008873ffffffffffffffffffffffffffffffffffffffff1673ffffffffffffffffffffffffffffffffffffffff168152602001908152602001600020600082825461341491906151ae565b92505081905550808061342690614ced565b915050613377565b508473ffffffffffffffffffffffffffffffffffffffff16600073ffffffffffffffffffffffffffffffffffffffff168273ffffffffffffffffffffffffffffffffffffffff167f4a39dc06d4c0dbc64b70af90fd698a233a518aa5d07e595d983b8c0526c8f7fb87876040516134a6929190615414565b60405180910390a46134bd81600087878787612e79565b6134cc81600087878787612e81565b5050505050565b60606000600167ffffffffffffffff8111156134f2576134f1613e51565b5b6040519080825280602002602001820160405280156135205781602001602082028036833780820191505090505b509050828160008151811061353857613537614c8f565b5b60200260200101818152505080915050919050565b61356c8473ffffffffffffffffffffffffffffffffffffffff1661379c565b1561371c578373ffffffffffffffffffffffffffffffffffffffff1663f23a6e6187878686866040518663ffffffff1660e01b81526004016135b2959493929190615b48565b6020604051808303816000875af19250505080156135ee57506040513d601f19601f820116820180604052508101906135eb91906157d4565b60015b613693576135fa61580e565b806308c379a003613656575061360e615830565b806136195750613658565b806040517f08c379a000000000000000000000000000000000000000000000000000000000815260040161364d9190613ccb565b60405180910390fd5b505b6040517f08c379a000000000000000000000000000000000000000000000000000000000815260040161368a90615932565b60405180910390fd5b63f23a6e6160e01b7bffffffffffffffffffffffffffffffffffffffffffffffffffffffff1916817bffffffffffffffffffffffffffffffffffffffffffffffffffffffff19161461371a576040517f08c379a0000000000000000000000000000000000000000000000000000000008152600401613711906159c4565b60405180910390fd5b505b505050505050565b600061372f826139fb565b80613795575060016000837bffffffffffffffffffffffffffffffffffffffffffffffffffffffff19167bffffffffffffffffffffffffffffffffffffffffffffffffffffffff1916815260200190815260200160002060009054906101000a900460ff165b9050919050565b6000808273ffffffffffffffffffffffffffffffffffffffff163b119050919050565b6060600060028360026137d29190615204565b6137dc91906151ae565b67ffffffffffffffff8111156137f5576137f4613e51565b5b6040519080825280601f01601f1916602001820160405280156138275781602001600182028036833780820191505090505b5090507f30000000000000000000000000000000000000000000000000000000000000008160008151811061385f5761385e614c8f565b5b60200101907effffffffffffffffffffffffffffffffffffffffffffffffffffffffffffff1916908160001a9053507f7800000000000000000000000000000000000000000000000000000000000000816001815181106138c3576138c2614c8f565b5b60200101907effffffffffffffffffffffffffffffffffffffffffffffffffffffffffffff1916908160001a905350600060018460026139039190615204565b61390d91906151ae565b90505b60018111156139ad577f3031323334353637383961626364656600000000000000000000000000000000600f86166010811061394f5761394e614c8f565b5b1a60f81b82828151811061396657613965614c8f565b5b60200101907effffffffffffffffffffffffffffffffffffffffffffffffffffffffffffff1916908160001a905350600485901c9450806139a690615ba2565b9050613910565b50600084146139f1576040517f08c379a00000000000000000000000000000000000000000000000000000000081526004016139e890615c17565b60405180910390fd5b8091505092915050565b60007f01ffc9a7000000000000000000000000000000000000000000000000000000007bffffffffffffffffffffffffffffffffffffffffffffffffffffffff1916827bffffffffffffffffffffffffffffffffffffffffffffffffffffffff1916149050919050565b6000604051905090565b600080fd5b600080fd5b600073ffffffffffffffffffffffffffffffffffffffff82169050919050565b6000613aa482613a79565b9050919050565b613ab481613a99565b8114613abf57600080fd5b50565b600081359050613ad181613aab565b92915050565b6000819050919050565b613aea81613ad7565b8114613af557600080fd5b50565b600081359050613b0781613ae1565b92915050565b60008060408385031215613b2457613b23613a6f565b5b6000613b3285828601613ac2565b9250506020613b4385828601613af8565b9150509250929050565b613b5681613ad7565b82525050565b6000602082019050613b716000830184613b4d565b92915050565b60007fffffffff0000000000000000000000000000000000000000000000000000000082169050919050565b613bac81613b77565b8114613bb757600080fd5b50565b600081359050613bc981613ba3565b92915050565b600060208284031215613be557613be4613a6f565b5b6000613bf384828501613bba565b91505092915050565b60008115159050919050565b613c1181613bfc565b82525050565b6000602082019050613c2c6000830184613c08565b92915050565b600081519050919050565b600082825260208201905092915050565b60005b83811015613c6c578082015181840152602081019050613c51565b83811115613c7b576000848401525b50505050565b6000601f19601f8301169050919050565b6000613c9d82613c32565b613ca78185613c3d565b9350613cb7818560208601613c4e565b613cc081613c81565b840191505092915050565b60006020820190508181036000830152613ce58184613c92565b905092915050565b600060208284031215613d0357613d02613a6f565b5b6000613d1184828501613af8565b91505092915050565b600060208284031215613d3057613d2f613a6f565b5b6000613d3e84828501613ac2565b91505092915050565b6000819050919050565b613d5a81613d47565b8114613d6557600080fd5b50565b600081359050613d7781613d51565b92915050565b600060208284031215613d9357613d92613a6f565b5b6000613da184828501613d68565b91505092915050565b613db381613d47565b82525050565b6000602082019050613dce6000830184613daa565b92915050565b60008060408385031215613deb57613dea613a6f565b5b6000613df985828601613af8565b9250506020613e0a85828601613af8565b9150509250929050565b613e1d81613a99565b82525050565b6000604082019050613e386000830185613e14565b613e456020830184613b4d565b9392505050565b600080fd5b7f4e487b7100000000000000000000000000000000000000000000000000000000600052604160045260246000fd5b613e8982613c81565b810181811067ffffffffffffffff82111715613ea857613ea7613e51565b5b80604052505050565b6000613ebb613a65565b9050613ec78282613e80565b919050565b600067ffffffffffffffff821115613ee757613ee6613e51565b5b602082029050602081019050919050565b600080fd5b6000613f10613f0b84613ecc565b613eb1565b90508083825260208201905060208402830185811115613f3357613f32613ef8565b5b835b81811015613f5c5780613f488882613af8565b845260208401935050602081019050613f35565b5050509392505050565b600082601f830112613f7b57613f7a613e4c565b5b8135613f8b848260208601613efd565b91505092915050565b600080fd5b600067ffffffffffffffff821115613fb457613fb3613e51565b5b613fbd82613c81565b9050602081019050919050565b82818337600083830152505050565b6000613fec613fe784613f99565b613eb1565b90508281526020810184848401111561400857614007613f94565b5b614013848285613fca565b509392505050565b600082601f8301126140305761402f613e4c565b5b8135614040848260208601613fd9565b91505092915050565b600080600080600060a0868803121561406557614064613a6f565b5b600061407388828901613ac2565b955050602061408488828901613ac2565b945050604086013567ffffffffffffffff8111156140a5576140a4613a74565b5b6140b188828901613f66565b935050606086013567ffffffffffffffff8111156140d2576140d1613a74565b5b6140de88828901613f66565b925050608086013567ffffffffffffffff8111156140ff576140fe613a74565b5b61410b8882890161401b565b9150509295509295909350565b6000806040838503121561412f5761412e613a6f565b5b600061413d85828601613d68565b925050602061414e85828601613ac2565b9150509250929050565b600067ffffffffffffffff82111561417357614172613e51565b5b602082029050602081019050919050565b600061419761419284614158565b613eb1565b905080838252602082019050602084028301858111156141ba576141b9613ef8565b5b835b818110156141e357806141cf8882613ac2565b8452602084019350506020810190506141bc565b5050509392505050565b600082601f83011261420257614201613e4c565b5b8135614212848260208601614184565b91505092915050565b6000806040838503121561423257614231613a6f565b5b600083013567ffffffffffffffff8111156142505761424f613a74565b5b61425c858286016141ed565b925050602083013567ffffffffffffffff81111561427d5761427c613a74565b5b61428985828601613f66565b9150509250929050565b600081519050919050565b600082825260208201905092915050565b6000819050602082019050919050565b6142c881613ad7565b82525050565b60006142da83836142bf565b60208301905092915050565b6000602082019050919050565b60006142fe82614293565b614308818561429e565b9350614313836142af565b8060005b8381101561434457815161432b88826142ce565b9750614336836142e6565b925050600181019050614317565b5085935050505092915050565b6000602082019050818103600083015261436b81846142f3565b905092915050565b60006020820190506143886000830184613e14565b92915050565b6000602082840312156143a4576143a3613a6f565b5b600082013567ffffffffffffffff8111156143c2576143c1613a74565b5b6143ce84828501613f66565b91505092915050565b6143e081613bfc565b81146143eb57600080fd5b50565b6000813590506143fd816143d7565b92915050565b6000806040838503121561441a57614419613a6f565b5b600061442885828601613ac2565b9250506020614439858286016143ee565b9150509250929050565b6000806000806080858703121561445d5761445c613a6f565b5b600061446b87828801613ac2565b945050602061447c87828801613af8565b935050604061448d87828801613af8565b925050606061449e878288016143ee565b91505092959194509250565b600067ffffffffffffffff8211156144c5576144c4613e51565b5b602082029050602081019050919050565b60006144e96144e4846144aa565b613eb1565b9050808382526020820190506020840283018581111561450c5761450b613ef8565b5b835b81811015614535578061452188826143ee565b84526020840193505060208101905061450e565b5050509392505050565b600082601f83011261455457614553613e4c565b5b81356145648482602086016144d6565b91505092915050565b6000806000806080858703121561458757614586613a6f565b5b600061459587828801613ac2565b945050602085013567ffffffffffffffff8111156145b6576145b5613a74565b5b6145c287828801613f66565b935050604085013567ffffffffffffffff8111156145e3576145e2613a74565b5b6145ef87828801613f66565b925050606085013567ffffffffffffffff8111156146105761460f613a74565b5b61461c8782880161453f565b91505092959194509250565b6000806040838503121561463f5761463e613a6f565b5b600061464d85828601613ac2565b925050602061465e85828601613ac2565b9150509250929050565b600080600080600060a0868803121561468457614683613a6f565b5b600061469288828901613ac2565b95505060206146a388828901613ac2565b94505060406146b488828901613af8565b93505060606146c588828901613af8565b925050608086013567ffffffffffffffff8111156146e6576146e5613a74565b5b6146f28882890161401b565b9150509295509295909350565b60008060006060848603121561471857614717613a6f565b5b600061472686828701613ac2565b935050602061473786828701613af8565b925050604061474886828701613af8565b9150509250925092565b7f455243313135353a2062616c616e636520717565727920666f7220746865207a60008201527f65726f2061646472657373000000000000000000000000000000000000000000602082015250565b60006147ae602b83613c3d565b91506147b982614752565b604082019050919050565b600060208201905081810360008301526147dd816147a1565b9050919050565b7f4e487b7100000000000000000000000000000000000000000000000000000000600052602260045260246000fd5b6000600282049050600182168061482b57607f821691505b60208210810361483e5761483d6147e4565b5b50919050565b7f546f6b656e206e6f74206d696e74656400000000000000000000000000000000600082015250565b600061487a601083613c3d565b915061488582614844565b602082019050919050565b600060208201905081810360008301526148a98161486d565b9050919050565b600081905092915050565b60008190508160005260206000209050919050565b600081546148dd81614813565b6148e781866148b0565b9450600182166000811461490257600181146149175761494a565b60ff198316865281151582028601935061494a565b614920856148bb565b60005b8381101561494257815481890152600182019150602081019050614923565b838801955050505b50505092915050565b600061495e82613c32565b61496881856148b0565b9350614978818560208601613c4e565b80840191505092915050565b7f2e6a736f6e000000000000000000000000000000000000000000000000000000600082015250565b60006149ba6005836148b0565b91506149c582614984565b600582019050919050565b60006149dc82856148d0565b91506149e88284614953565b91506149f3826149ad565b91508190509392505050565b7f68696464656e4e46542e6a736f6e000000000000000000000000000000000000600082015250565b6000614a35600e836148b0565b9150614a40826149ff565b600e82019050919050565b6000614a5782846148d0565b9150614a6282614a28565b915081905092915050565b7f4f776e61626c653a2063616c6c6572206973206e6f74207468652061646d696e600082015250565b6000614aa3602083613c3d565b9150614aae82614a6d565b602082019050919050565b60006020820190508181036000830152614ad281614a96565b9050919050565b7f455243313135353a207472616e736665722063616c6c6572206973206e6f742060008201527f6f776e6572206e6f7220617070726f7665640000000000000000000000000000602082015250565b6000614b35603283613c3d565b9150614b4082614ad9565b604082019050919050565b60006020820190508181036000830152614b6481614b28565b9050919050565b7f416363657373436f6e74726f6c3a2063616e206f6e6c792072656e6f756e636560008201527f20726f6c657320666f722073656c660000000000000000000000000000000000602082015250565b6000614bc7602f83613c3d565b9150614bd282614b6b565b604082019050919050565b60006020820190508181036000830152614bf681614bba565b9050919050565b7f455243313135353a206163636f756e747320616e6420696473206c656e67746860008201527f206d69736d617463680000000000000000000000000000000000000000000000602082015250565b6000614c59602983613c3d565b9150614c6482614bfd565b604082019050919050565b60006020820190508181036000830152614c8881614c4c565b9050919050565b7f4e487b7100000000000000000000000000000000000000000000000000000000600052603260045260246000fd5b7f4e487b7100000000000000000000000000000000000000000000000000000000600052601160045260246000fd5b6000614cf882613ad7565b91507fffffffffffffffffffffffffffffffffffffffffffffffffffffffffffffffff8203614d2a57614d29614cbe565b5b600182019050919050565b7f4f776e61626c653a2063616c6c6572206973206e6f7420746865206d696e746560008201527f7200000000000000000000000000000000000000000000000000000000000000602082015250565b6000614d91602183613c3d565b9150614d9c82614d35565b604082019050919050565b60006020820190508181036000830152614dc081614d84565b9050919050565b7f4f776e61626c653a2063616c6c6572206973206e6f7420746865206f776e6572600082015250565b6000614dfd602083613c3d565b9150614e0882614dc7565b602082019050919050565b60006020820190508181036000830152614e2c81614df0565b9050919050565b7f4d6178696d756d20323020746f6b656e73207065722062617463682073686f7560008201527f6c64206265206d696e7465642100000000000000000000000000000000000000602082015250565b6000614e8f602d83613c3d565b9150614e9a82614e33565b604082019050919050565b60006020820190508181036000830152614ebe81614e82565b9050919050565b7f64766c705f636f6e74726163745f6d657461646174612e6a736f6e0000000000600082015250565b6000614efb601b836148b0565b9150614f0682614ec5565b601b82019050919050565b6000614f1d82846148d0565b9150614f2882614eee565b915081905092915050565b7f455243313135353a2063616c6c6572206973206e6f74206f776e6572206e6f7260008201527f20617070726f7665640000000000000000000000000000000000000000000000602082015250565b6000614f8f602983613c3d565b9150614f9a82614f33565b604082019050919050565b60006020820190508181036000830152614fbe81614f82565b9050919050565b7f4f776e61626c653a206e6577206f776e657220697320746865207a65726f206160008201527f6464726573730000000000000000000000000000000000000000000000000000602082015250565b6000615021602683613c3d565b915061502c82614fc5565b604082019050919050565b6000602082019050818103600083015261505081615014565b9050919050565b7f4e656564206f70657261746f7220617070726f76616c20666f7220337264207060008201527f61727479206275726e732e000000000000000000000000000000000000000000602082015250565b60006150b3602b83613c3d565b91506150be82615057565b604082019050919050565b600060208201905081810360008301526150e2816150a6565b9050919050565b7f4e487b7100000000000000000000000000000000000000000000000000000000600052601260045260246000fd5b600061512382613ad7565b915061512e83613ad7565b92508261513e5761513d6150e9565b5b828204905092915050565b600061515482613ad7565b915061515f83613ad7565b92508282101561517257615171614cbe565b5b828203905092915050565b600061518882613ad7565b915061519383613ad7565b9250826151a3576151a26150e9565b5b828206905092915050565b60006151b982613ad7565b91506151c483613ad7565b9250827fffffffffffffffffffffffffffffffffffffffffffffffffffffffffffffffff038211156151f9576151f8614cbe565b5b828201905092915050565b600061520f82613ad7565b915061521a83613ad7565b9250817fffffffffffffffffffffffffffffffffffffffffffffffffffffffffffffffff048311821515161561525357615252614cbe565b5b828202905092915050565b7f455243313135353a2069647320616e6420616d6f756e7473206c656e6774682060008201527f6d69736d61746368000000000000000000000000000000000000000000000000602082015250565b60006152ba602883613c3d565b91506152c58261525e565b604082019050919050565b600060208201905081810360008301526152e9816152ad565b9050919050565b7f455243313135353a207472616e7366657220746f20746865207a65726f20616460008201527f6472657373000000000000000000000000000000000000000000000000000000602082015250565b600061534c602583613c3d565b9150615357826152f0565b604082019050919050565b6000602082019050818103600083015261537b8161533f565b9050919050565b7f455243313135353a20696e73756666696369656e742062616c616e636520666f60008201527f72207472616e7366657200000000000000000000000000000000000000000000602082015250565b60006153de602a83613c3d565b91506153e982615382565b604082019050919050565b6000602082019050818103600083015261540d816153d1565b9050919050565b6000604082019050818103600083015261542e81856142f3565b9050818103602083015261544281846142f3565b90509392505050565b7f455243313135353a2073657474696e6720617070726f76616c2073746174757360008201527f20666f722073656c660000000000000000000000000000000000000000000000602082015250565b60006154a7602983613c3d565b91506154b28261544b565b604082019050919050565b600060208201905081810360008301526154d68161549a565b9050919050565b7f546f6b656e20697320616c7265616479206d696e746564000000000000000000600082015250565b6000615513601783613c3d565b915061551e826154dd565b602082019050919050565b6000602082019050818103600083015261554281615506565b9050919050565b7f537570706c792073686f756c6420626520706f73697469766500000000000000600082015250565b600061557f601983613c3d565b915061558a82615549565b602082019050919050565b600060208201905081810360008301526155ae81615572565b9050919050565b60006040820190506155ca6000830185613b4d565b6155d76020830184613b4d565b9392505050565b7f455243313135353a206275726e2066726f6d20746865207a65726f206164647260008201527f6573730000000000000000000000000000000000000000000000000000000000602082015250565b600061563a602383613c3d565b9150615645826155de565b604082019050919050565b600060208201905081810360008301526156698161562d565b9050919050565b7f455243313135353a206275726e20616d6f756e7420657863656564732062616c60008201527f616e636500000000000000000000000000000000000000000000000000000000602082015250565b60006156cc602483613c3d565b91506156d782615670565b604082019050919050565b600060208201905081810360008301526156fb816156bf565b9050919050565b600081519050919050565b600082825260208201905092915050565b600061572982615702565b615733818561570d565b9350615743818560208601613c4e565b61574c81613c81565b840191505092915050565b600060a08201905061576c6000830188613e14565b6157796020830187613e14565b818103604083015261578b81866142f3565b9050818103606083015261579f81856142f3565b905081810360808301526157b3818461571e565b90509695505050505050565b6000815190506157ce81613ba3565b92915050565b6000602082840312156157ea576157e9613a6f565b5b60006157f8848285016157bf565b91505092915050565b60008160e01c9050919050565b600060033d111561582d5760046000803e61582a600051615801565b90505b90565b600060443d106158bd57615842613a65565b60043d036004823e80513d602482011167ffffffffffffffff8211171561586a5750506158bd565b808201805167ffffffffffffffff81111561588857505050506158bd565b80602083010160043d0385018111156158a55750505050506158bd565b6158b482602001850186613e80565b82955050505050505b90565b7f455243313135353a207472616e7366657220746f206e6f6e204552433131353560008201527f526563656976657220696d706c656d656e746572000000000000000000000000602082015250565b600061591c603483613c3d565b9150615927826158c0565b604082019050919050565b6000602082019050818103600083015261594b8161590f565b9050919050565b7f455243313135353a204552433131353552656365697665722072656a6563746560008201527f6420746f6b656e73000000000000000000000000000000000000000000000000602082015250565b60006159ae602883613c3d565b91506159b982615952565b604082019050919050565b600060208201905081810360008301526159dd816159a1565b9050919050565b7f416363657373436f6e74726f6c3a206163636f756e7420000000000000000000600082015250565b6000615a1a6017836148b0565b9150615a25826159e4565b601782019050919050565b7f206973206d697373696e6720726f6c6520000000000000000000000000000000600082015250565b6000615a666011836148b0565b9150615a7182615a30565b601182019050919050565b6000615a8782615a0d565b9150615a938285614953565b9150615a9e82615a59565b9150615aaa8284614953565b91508190509392505050565b7f455243313135353a206d696e7420746f20746865207a65726f2061646472657360008201527f7300000000000000000000000000000000000000000000000000000000000000602082015250565b6000615b12602183613c3d565b9150615b1d82615ab6565b604082019050919050565b60006020820190508181036000830152615b4181615b05565b9050919050565b600060a082019050615b5d6000830188613e14565b615b6a6020830187613e14565b615b776040830186613b4d565b615b846060830185613b4d565b8181036080830152615b96818461571e565b90509695505050505050565b6000615bad82613ad7565b915060008203615bc057615bbf614cbe565b5b600182039050919050565b7f537472696e67733a20686578206c656e67746820696e73756666696369656e74600082015250565b6000615c01602083613c3d565b9150615c0c82615bcb565b602082019050919050565b60006020820190508181036000830152615c3081615bf4565b905091905056fea2646970667358221220339ea82dc77f54be35889693d42249f0094473bd0f40e6e2406eff55c2942c9a64736f6c634300080f0033",
  "linkReferences": {},
  "deployedLinkReferences": {}
}