{
  "_format": "hh-sol-artifact-1",
  "contractName": "DvlpControlRole",
  "sourceName": "contracts/DvlpControlRole.sol",
  "abi": [
    {
      "inputs": [],
      "stateMutability": "nonpayable",
      "type": "constructor"
    },
    {
      "anonymous": false,
      "inputs": [
        {
          "indexed": true,
          "internalType": "bytes32",
          "name": "role",
          "type": "bytes32"
        },
        {
          "indexed": true,
          "internalType": "bytes32",
          "name": "previousAdminRole",
          "type": "bytes32"
        },
        {
          "indexed": true,
          "internalType": "bytes32",
          "name": "newAdminRole",
          "type": "bytes32"
        }
      ],
      "name": "RoleAdminChanged",
      "type": "event"
    },
    {
      "anonymous": false,
      "inputs": [
        {
          "indexed": true,
          "internalType": "bytes32",
          "name": "role",
          "type": "bytes32"
        },
        {
          "indexed": true,
          "internalType": "address",
          "name": "account",
          "type": "address"
        },
        {
          "indexed": true,
          "internalType": "address",
          "name": "sender",
          "type": "address"
        }
      ],
      "name": "RoleGranted",
      "type": "event"
    },
    {
      "anonymous": false,
      "inputs": [
        {
          "indexed": true,
          "internalType": "bytes32",
          "name": "role",
          "type": "bytes32"
        },
        {
          "indexed": true,
          "internalType": "address",
          "name": "account",
          "type": "address"
        },
        {
          "indexed": true,
          "internalType": "address",
          "name": "sender",
          "type": "address"
        }
      ],
      "name": "RoleRevoked",
      "type": "event"
    },
    {
      "inputs": [],
      "name": "DEFAULT_ADMIN_ROLE",
      "outputs": [
        {
          "internalType": "bytes32",
          "name": "",
          "type": "bytes32"
        }
      ],
      "stateMutability": "view",
      "type": "function"
    },
    {
      "inputs": [],
      "name": "MINTER_ROLE",
      "outputs": [
        {
          "internalType": "bytes32",
          "name": "",
          "type": "bytes32"
        }
      ],
      "stateMutability": "view",
      "type": "function"
    },
    {
      "inputs": [
        {
          "internalType": "address",
          "name": "_account",
          "type": "address"
        }
      ],
      "name": "addAdmin",
      "outputs": [],
      "stateMutability": "nonpayable",
      "type": "function"
    },
    {
      "inputs": [
        {
          "internalType": "address",
          "name": "_account",
          "type": "address"
        }
      ],
      "name": "addMinter",
      "outputs": [],
      "stateMutability": "nonpayable",
      "type": "function"
    },
    {
      "inputs": [
        {
          "internalType": "bytes32",
          "name": "role",
          "type": "bytes32"
        }
      ],
      "name": "getRoleAdmin",
      "outputs": [
        {
          "internalType": "bytes32",
          "name": "",
          "type": "bytes32"
        }
      ],
      "stateMutability": "view",
      "type": "function"
    },
    {
      "inputs": [
        {
          "internalType": "bytes32",
          "name": "role",
          "type": "bytes32"
        },
        {
          "internalType": "address",
          "name": "account",
          "type": "address"
        }
      ],
      "name": "grantRole",
      "outputs": [],
      "stateMutability": "nonpayable",
      "type": "function"
    },
    {
      "inputs": [
        {
          "internalType": "bytes32",
          "name": "role",
          "type": "bytes32"
        },
        {
          "internalType": "address",
          "name": "account",
          "type": "address"
        }
      ],
      "name": "hasRole",
      "outputs": [
        {
          "internalType": "bool",
          "name": "",
          "type": "bool"
        }
      ],
      "stateMutability": "view",
      "type": "function"
    },
    {
      "inputs": [
        {
          "internalType": "address",
          "name": "_account",
          "type": "address"
        }
      ],
      "name": "removeAdmin",
      "outputs": [],
      "stateMutability": "nonpayable",
      "type": "function"
    },
    {
      "inputs": [
        {
          "internalType": "address",
          "name": "_account",
          "type": "address"
        }
      ],
      "name": "removeMinter",
      "outputs": [],
      "stateMutability": "nonpayable",
      "type": "function"
    },
    {
      "inputs": [
        {
          "internalType": "bytes32",
          "name": "role",
          "type": "bytes32"
        },
        {
          "internalType": "address",
          "name": "account",
          "type": "address"
        }
      ],
      "name": "renounceRole",
      "outputs": [],
      "stateMutability": "nonpayable",
      "type": "function"
    },
    {
      "inputs": [
        {
          "internalType": "bytes32",
          "name": "role",
          "type": "bytes32"
        },
        {
          "internalType": "address",
          "name": "account",
          "type": "address"
        }
      ],
      "name": "revokeRole",
      "outputs": [],
      "stateMutability": "nonpayable",
      "type": "function"
    },
    {
      "inputs": [
        {
          "internalType": "bytes4",
          "name": "interfaceId",
          "type": "bytes4"
        }
      ],
      "name": "supportsInterface",
      "outputs": [
        {
          "internalType": "bool",
          "name": "",
          "type": "bool"
        }
      ],
      "stateMutability": "view",
      "type": "function"
    }
  ],
  "bytecode": "0x608060405234801561001057600080fd5b506100316000801b61002661003660201b60201c565b61003e60201b60201c565b6101a8565b600033905090565b61004e828261005260201b60201c565b5050565b610062828261013e60201b60201c565b61013a57600160008084815260200190815260200160002060000160008373ffffffffffffffffffffffffffffffffffffffff1673ffffffffffffffffffffffffffffffffffffffff16815260200190815260200160002060006101000a81548160ff0219169083151502179055506100df61003660201b60201c565b73ffffffffffffffffffffffffffffffffffffffff168173ffffffffffffffffffffffffffffffffffffffff16837f2f8788117e7eff1d82e926ec794901d17c78024a50270940304540a733656f0d60405160405180910390a45b5050565b600080600084815260200190815260200160002060000160008373ffffffffffffffffffffffffffffffffffffffff1673ffffffffffffffffffffffffffffffffffffffff16815260200190815260200160002060009054906101000a900460ff16905092915050565b61122780620001b86000396000f3fe608060405234801561001057600080fd5b50600436106100b45760003560e01c80637048027511610071578063704802751461018957806391d14854146101a5578063983b2d56146101d5578063a217fddf146101f1578063d53913931461020f578063d547741f1461022d576100b4565b806301ffc9a7146100b95780631785f53c146100e9578063248a9ca3146101055780632f2ff15d146101355780633092afd51461015157806336568abe1461016d575b600080fd5b6100d360048036038101906100ce9190610b93565b610249565b6040516100e09190610bdb565b60405180910390f35b61010360048036038101906100fe9190610c54565b6102c3565b005b61011f600480360381019061011a9190610cb7565b610322565b60405161012c9190610cf3565b60405180910390f35b61014f600480360381019061014a9190610d0e565b610341565b005b61016b60048036038101906101669190610c54565b610362565b005b61018760048036038101906101829190610d0e565b6103de565b005b6101a3600480360381019061019e9190610c54565b610461565b005b6101bf60048036038101906101ba9190610d0e565b6104c0565b6040516101cc9190610bdb565b60405180910390f35b6101ef60048036038101906101ea9190610c54565b61052a565b005b6101f96105a6565b6040516102069190610cf3565b60405180910390f35b6102176105ad565b6040516102249190610cf3565b60405180910390f35b61024760048036038101906102429190610d0e565b6105d1565b005b60007f7965db0b000000000000000000000000000000000000000000000000000000007bffffffffffffffffffffffffffffffffffffffffffffffffffffffff1916827bffffffffffffffffffffffffffffffffffffffffffffffffffffffff191614806102bc57506102bb826105f2565b5b9050919050565b6102d36102ce61065c565b610664565b610312576040517f08c379a000000000000000000000000000000000000000000000000000000000815260040161030990610dab565b60405180910390fd5b61031f6000801b826105d1565b50565b6000806000838152602001908152602001600020600101549050919050565b61034a82610322565b6103538161067a565b61035d838361068e565b505050565b61037261036d61065c565b610664565b6103b1576040517f08c379a00000000000000000000000000000000000000000000000000000000081526004016103a890610dab565b60405180910390fd5b6103db7f9f2df0fed2c77648de5860a4cc508cd0818c85b8b8a1ab4ceeef8d981c8956a6826105d1565b50565b6103e661065c565b73ffffffffffffffffffffffffffffffffffffffff168173ffffffffffffffffffffffffffffffffffffffff1614610453576040517f08c379a000000000000000000000000000000000000000000000000000000000815260040161044a90610e3d565b60405180910390fd5b61045d828261076e565b5050565b61047161046c61065c565b610664565b6104b0576040517f08c379a00000000000000000000000000000000000000000000000000000000081526004016104a790610dab565b60405180910390fd5b6104bd6000801b8261084f565b50565b600080600084815260200190815260200160002060000160008373ffffffffffffffffffffffffffffffffffffffff1673ffffffffffffffffffffffffffffffffffffffff16815260200190815260200160002060009054906101000a900460ff16905092915050565b61053a61053561065c565b610664565b610579576040517f08c379a000000000000000000000000000000000000000000000000000000000815260040161057090610dab565b60405180910390fd5b6105a37f9f2df0fed2c77648de5860a4cc508cd0818c85b8b8a1ab4ceeef8d981c8956a68261084f565b50565b6000801b81565b7f9f2df0fed2c77648de5860a4cc508cd0818c85b8b8a1ab4ceeef8d981c8956a681565b6105da82610322565b6105e38161067a565b6105ed838361076e565b505050565b60007f01ffc9a7000000000000000000000000000000000000000000000000000000007bffffffffffffffffffffffffffffffffffffffffffffffffffffffff1916827bffffffffffffffffffffffffffffffffffffffffffffffffffffffff1916149050919050565b600033905090565b60006106736000801b836104c0565b9050919050565b61068b8161068661065c565b61085d565b50565b61069882826104c0565b61076a57600160008084815260200190815260200160002060000160008373ffffffffffffffffffffffffffffffffffffffff1673ffffffffffffffffffffffffffffffffffffffff16815260200190815260200160002060006101000a81548160ff02191690831515021790555061070f61065c565b73ffffffffffffffffffffffffffffffffffffffff168173ffffffffffffffffffffffffffffffffffffffff16837f2f8788117e7eff1d82e926ec794901d17c78024a50270940304540a733656f0d60405160405180910390a45b5050565b61077882826104c0565b1561084b57600080600084815260200190815260200160002060000160008373ffffffffffffffffffffffffffffffffffffffff1673ffffffffffffffffffffffffffffffffffffffff16815260200190815260200160002060006101000a81548160ff0219169083151502179055506107f061065c565b73ffffffffffffffffffffffffffffffffffffffff168173ffffffffffffffffffffffffffffffffffffffff16837ff6391f5c32d9c69d2a47ea670b442974b53935d1edc7fd64eb21e047a839171b60405160405180910390a45b5050565b610859828261068e565b5050565b61086782826104c0565b6108f65761088c8173ffffffffffffffffffffffffffffffffffffffff1660146108fa565b61089a8360001c60206108fa565b6040516020016108ab929190610f6f565b6040516020818303038152906040526040517f08c379a00000000000000000000000000000000000000000000000000000000081526004016108ed9190610ff3565b60405180910390fd5b5050565b60606000600283600261090d919061104e565b61091791906110a8565b67ffffffffffffffff8111156109305761092f6110fe565b5b6040519080825280601f01601f1916602001820160405280156109625781602001600182028036833780820191505090505b5090507f30000000000000000000000000000000000000000000000000000000000000008160008151811061099a5761099961112d565b5b60200101907effffffffffffffffffffffffffffffffffffffffffffffffffffffffffffff1916908160001a9053507f7800000000000000000000000000000000000000000000000000000000000000816001815181106109fe576109fd61112d565b5b60200101907effffffffffffffffffffffffffffffffffffffffffffffffffffffffffffff1916908160001a90535060006001846002610a3e919061104e565b610a4891906110a8565b90505b6001811115610ae8577f3031323334353637383961626364656600000000000000000000000000000000600f861660108110610a8a57610a8961112d565b5b1a60f81b828281518110610aa157610aa061112d565b5b60200101907effffffffffffffffffffffffffffffffffffffffffffffffffffffffffffff1916908160001a905350600485901c945080610ae19061115c565b9050610a4b565b5060008414610b2c576040517f08c379a0000000000000000000000000000000000000000000000000000000008152600401610b23906111d1565b60405180910390fd5b8091505092915050565b600080fd5b60007fffffffff0000000000000000000000000000000000000000000000000000000082169050919050565b610b7081610b3b565b8114610b7b57600080fd5b50565b600081359050610b8d81610b67565b92915050565b600060208284031215610ba957610ba8610b36565b5b6000610bb784828501610b7e565b91505092915050565b60008115159050919050565b610bd581610bc0565b82525050565b6000602082019050610bf06000830184610bcc565b92915050565b600073ffffffffffffffffffffffffffffffffffffffff82169050919050565b6000610c2182610bf6565b9050919050565b610c3181610c16565b8114610c3c57600080fd5b50565b600081359050610c4e81610c28565b92915050565b600060208284031215610c6a57610c69610b36565b5b6000610c7884828501610c3f565b91505092915050565b6000819050919050565b610c9481610c81565b8114610c9f57600080fd5b50565b600081359050610cb181610c8b565b92915050565b600060208284031215610ccd57610ccc610b36565b5b6000610cdb84828501610ca2565b91505092915050565b610ced81610c81565b82525050565b6000602082019050610d086000830184610ce4565b92915050565b60008060408385031215610d2557610d24610b36565b5b6000610d3385828601610ca2565b9250506020610d4485828601610c3f565b9150509250929050565b600082825260208201905092915050565b7f4f776e61626c653a2063616c6c6572206973206e6f74207468652061646d696e600082015250565b6000610d95602083610d4e565b9150610da082610d5f565b602082019050919050565b60006020820190508181036000830152610dc481610d88565b9050919050565b7f416363657373436f6e74726f6c3a2063616e206f6e6c792072656e6f756e636560008201527f20726f6c657320666f722073656c660000000000000000000000000000000000602082015250565b6000610e27602f83610d4e565b9150610e3282610dcb565b604082019050919050565b60006020820190508181036000830152610e5681610e1a565b9050919050565b600081905092915050565b7f416363657373436f6e74726f6c3a206163636f756e7420000000000000000000600082015250565b6000610e9e601783610e5d565b9150610ea982610e68565b601782019050919050565b600081519050919050565b60005b83811015610edd578082015181840152602081019050610ec2565b83811115610eec576000848401525b50505050565b6000610efd82610eb4565b610f078185610e5d565b9350610f17818560208601610ebf565b80840191505092915050565b7f206973206d697373696e6720726f6c6520000000000000000000000000000000600082015250565b6000610f59601183610e5d565b9150610f6482610f23565b601182019050919050565b6000610f7a82610e91565b9150610f868285610ef2565b9150610f9182610f4c565b9150610f9d8284610ef2565b91508190509392505050565b6000601f19601f8301169050919050565b6000610fc582610eb4565b610fcf8185610d4e565b9350610fdf818560208601610ebf565b610fe881610fa9565b840191505092915050565b6000602082019050818103600083015261100d8184610fba565b905092915050565b6000819050919050565b7f4e487b7100000000000000000000000000000000000000000000000000000000600052601160045260246000fd5b600061105982611015565b915061106483611015565b9250817fffffffffffffffffffffffffffffffffffffffffffffffffffffffffffffffff048311821515161561109d5761109c61101f565b5b828202905092915050565b60006110b382611015565b91506110be83611015565b9250827fffffffffffffffffffffffffffffffffffffffffffffffffffffffffffffffff038211156110f3576110f261101f565b5b828201905092915050565b7f4e487b7100000000000000000000000000000000000000000000000000000000600052604160045260246000fd5b7f4e487b7100000000000000000000000000000000000000000000000000000000600052603260045260246000fd5b600061116782611015565b91506000820361117a5761117961101f565b5b600182039050919050565b7f537472696e67733a20686578206c656e67746820696e73756666696369656e74600082015250565b60006111bb602083610d4e565b91506111c682611185565b602082019050919050565b600060208201905081810360008301526111ea816111ae565b905091905056fea2646970667358221220c82061a241ae56c4883e9ec2ca67241339f24432ef7159d47b45d12c75e7613764736f6c634300080d0033",
  "linkReferences": {},
  "deployedLinkReferences": {}
}